{"contracts/PolicyRegistry.sol":{"PolicyRegistry":{"abi":[{"inputs":[],"stateMutability":"nonpayable","type":"constructor"},{"anonymous":false,"inputs":[{"indexed":true,"internalType":"uint256","name":"policyId","type":"uint256"},{"indexed":false,"internalType":"uint256","name":"newCount","type":"uint256"}],"name":"ClaimCountUpdated","type":"event"},{"anonymous":false,"inputs":[{"indexed":true,"internalType":"uint256","name":"policyId","type":"uint256"},{"indexed":false,"internalType":"uint256","name":"amount","type":"uint256"}],"name":"PayoutRecorded","type":"event"},{"anonymous":false,"inputs":[{"indexed":true,"internalType":"uint256","name":"policyId","type":"uint256"}],"name":"PolicyCancelled","type":"event"},{"anonymous":false,"inputs":[{"indexed":true,"internalType":"uint256","name":"policyId","type":"uint256"},{"indexed":true,"internalType":"address","name":"policyholder","type":"address"}],"name":"PolicyCreated","type":"event"},{"anonymous":false,"inputs":[{"indexed":true,"internalType":"uint256","name":"policyId","type":"uint256"}],"name":"PolicyUpdated","type":"event"},{"inputs":[],"name":"admin","outputs":[{"internalType":"address","name":"","type":"address"}],"stateMutability":"view","type":"function"},{"inputs":[{"internalType":"uint256","name":"_policyId","type":"uint256"}],"name":"cancelPolicy","outputs":[],"stateMutability":"nonpayable","type":"function"},{"inputs":[],"name":"claimsProcessor","outputs":[{"internalType":"address","name":"","type":"address"}],"stateMutability":"view","type":"function"},{"inputs":[{"internalType":"address","name":"_policyholder","type":"address"},{"internalType":"uint256","name":"_premium","type":"uint256"},{"internalType":"uint256","name":"_coverage","type":"uint256"},{"internalType":"uint256","name":"_deductible","type":"uint256"},{"internalType":"string","name":"_policyType","type":"string"},{"internalType":"uint256","name":"_duration","type":"uint256"}],"name":"createPolicy","outputs":[{"internalType":"uint256","name":"","type":"uint256"}],"stateMutability":"nonpayable","type":"function"},{"inputs":[{"internalType":"uint256","name":"_policyId","type":"uint256"}],"name":"getPolicy","outputs":[{"components":[{"internalType":"uint256","name":"policyId","type":"uint256"},{"internalType":"address","name":"policyholder","type":"address"},{"internalType":"uint256","name":"premium","type":"uint256"},{"internalType":"uint256","name":"coverage","type":"uint256"},{"internalType":"uint256","name":"deductible","type":"uint256"},{"internalType":"string","name":"policyType","type":"string"},{"internalType":"uint256","name":"startDate","type":"uint256"},{"internalType":"uint256","name":"endDate","type":"uint256"},{"internalType":"bool","name":"isActive","type":"bool"},{"internalType":"uint256","name":"claimsCount","type":"uint256"},{"internalType":"uint256","name":"totalPayouts","type":"uint256"}],"internalType":"struct PolicyRegistry.Policy","name":"","type":"tuple"}],"stateMutability":"view","type":"function"},{"inputs":[{"internalType":"address","name":"_user","type":"address"}],"name":"getUserPolicies","outputs":[{"internalType":"uint256[]","name":"","type":"uint256[]"}],"stateMutability":"view","type":"function"},{"inputs":[{"internalType":"uint256","name":"_policyId","type":"uint256"}],"name":"incrementClaimCount","outputs":[],"stateMutability":"nonpayable","type":"function"},{"inputs":[{"internalType":"uint256","name":"_policyId","type":"uint256"},{"internalType":"address","name":"_claimant","type":"address"}],"name":"isPolicyValidForClaims","outputs":[{"internalType":"bool","name":"","type":"bool"}],"stateMutability":"view","type":"function"},{"inputs":[],"name":"nextPolicyId","outputs":[{"internalType":"uint256","name":"","type":"uint256"}],"stateMutability":"view","type":"function"},{"inputs":[{"internalType":"uint256","name":"","type":"uint256"}],"name":"policies","outputs":[{"internalType":"uint256","name":"policyId","type":"uint256"},{"internalType":"address","name":"policyholder","type":"address"},{"internalType":"uint256","name":"premium","type":"uint256"},{"internalType":"uint256","name":"coverage","type":"uint256"},{"internalType":"uint256","name":"deductible","type":"uint256"},{"internalType":"string","name":"policyType","type":"string"},{"internalType":"uint256","name":"startDate","type":"uint256"},{"internalType":"uint256","name":"endDate","type":"uint256"},{"internalType":"bool","name":"isActive","type":"bool"},{"internalType":"uint256","name":"claimsCount","type":"uint256"},{"internalType":"uint256","name":"totalPayouts","type":"uint256"}],"stateMutability":"view","type":"function"},{"inputs":[{"internalType":"uint256","name":"_policyId","type":"uint256"},{"internalType":"uint256","name":"_amount","type":"uint256"}],"name":"recordPayout","outputs":[],"stateMutability":"nonpayable","type":"function"},{"inputs":[{"internalType":"address","name":"_claimsProcessor","type":"address"}],"name":"setClaimsProcessor","outputs":[],"stateMutability":"nonpayable","type":"function"},{"inputs":[{"internalType":"uint256","name":"_policyId","type":"uint256"},{"internalType":"uint256","name":"_premium","type":"uint256"},{"internalType":"uint256","name":"_coverage","type":"uint256"},{"internalType":"uint256","name":"_deductible","type":"uint256"},{"internalType":"uint256","name":"_duration","type":"uint256"}],"name":"updatePolicy","outputs":[],"stateMutability":"nonpayable","type":"function"},{"inputs":[{"internalType":"address","name":"","type":"address"},{"internalType":"uint256","name":"","type":"uint256"}],"name":"userPolicies","outputs":[{"internalType":"uint256","name":"","type":"uint256"}],"stateMutability":"view","type":"function"}],"evm":{"bytecode":{"linkReferences":{},"object":"6080806040523461002d576001600255600380546001600160a01b03191633179055610f0490816100338239f35b600080fdfe608080604052600436101561001357600080fd5b60003560e01c90816319ac461414610b715750806326d13b0014610aa35780632b07fce31461090f5780633a8e94f5146108be5780633d36adc514610866578063536a7e4f1461083d57806376d0629e146104c35780638d3629c0146103f3578063943f31a614610351578063b20e8bcc14610270578063cad0b8db14610252578063d3e8948314610190578063f8112568146100e75763f851a440146100b957600080fd5b346100e25760003660031901126100e2576003546040516001600160a01b039091168152602090f35b600080fd5b346100e25760403660031901126100e2576004357f899732479a7415c852b353630c0c7aa1a6f275d4e17e3196363d995b3e1da72f602060243561013660018060a01b03600454163314610e8a565b836000526000825261014e8460406000205414610e03565b836000526000825261016a60ff60086040600020015416610e47565b8360005260008252600a604060002001610185828254610df6565b9055604051908152a2005b346100e25760203660031901126100e25760043560005260006020526040600020805460018060a01b036001830154169160028101546003820154916004810154926101de60058301610d17565b9361022f60068401549560078501549260ff60088701541694600a6009880154970154976040519b8c9b8c5260208c015260408b015260608a015260808901526101608060a08a0152880190610c30565b9460c087015260e086015215156101008501526101208401526101408301520390f35b346100e25760003660031901126100e2576020600254604051908152f35b346100e25760203660031901126100e25760043561029960018060a01b03600354163314610dbd565b8060005260006020526102b28160406000205414610e03565b80600052600060205260ff600860406000200154161561030c57806000526000602052600860406000200160ff1981541690557fbb1ae509b65d9486a686f3f1b0435353031b5607109dc80aa4d063887e10f3e8600080a2005b60405162461bcd60e51b815260206004820152601a60248201527f506f6c69637920697320616c726561647920696e6163746976650000000000006044820152606490fd5b346100e25760403660031901126100e2576024356001600160a01b0381811691600435908390036100e257602092816000526000845260406000209182541492836103e3575b5050816103d4575b816103c5575b816103b6575b506040519015158152f35b600791500154421115826103ab565b600681015442101591506103a5565b600881015460ff16915061039f565b6001830154161491508380610397565b346100e2576020806003193601126100e2576004359061041e60018060a01b03600454163314610e8a565b81600052600081526104368260406000205414610e03565b816000526000815261045260ff60086040600020015416610e47565b81600052600081526009604060002001908154600181018091116104ad577fde9d9328490fbf56bf6fb489ad69f4cc297e9642da86fbd4f5c823494a4e01f692558260005260008152600960406000200154604051908152a2005b634e487b7160e01b600052601160045260246000fd5b346100e25760c03660031901126100e2576104dc610c1a565b6084359067ffffffffffffffff82116100e257366023830112156100e257816004013567ffffffffffffffff811161075f5760405192610526601f8301601f191660200185610cbb565b81845236602483830101116100e25781600092602460209301838701378401015261055c60018060a01b03600354163314610dbd565b6002549160001983146104ad576001830160025561057c60a43542610df6565b6040519161058983610c9e565b84835260018060a01b038416602084015260243560408401526044356060840152606435608084015260a08301524260c083015260e0820152600161010082015260006101208201526000610140820152826000526000602052604060002090805182556001820160018060a01b036020830151166bffffffffffffffffffffffff60a01b82541617905560408101516002830155606081015160038301556080810151600483015560a081015180519067ffffffffffffffff821161075f576106566005850154610cdd565b601f81116107f6575b50602090601f8311600114610780579180600a949261014094600092610775575b50508160011b916000199060031b1c19161760058501555b60c0810151600685015560e0810151600785015560088401610100820151151560ff801983541691161790556101208101516009850155015191015560018060a01b03811660005260016020526040600020918254926801000000000000000084101561075f5783610711916001602096018155610c70565b815460001960039290921b91821b19169083901b179055604051916001600160a01b0316817f692975d6d42aec50e0f6ff672acde3bf011e71355ed86dd49de0a1f533950cba600080a38152f35b634e487b7160e01b600052604160045260246000fd5b015190508880610680565b906005850160005260206000209160005b601f19851681106107de575092600a94926001926101409583601f198116106107c5575b505050811b016005850155610698565b015160001960f88460031b161c191690558880806107b5565b91926020600181928685015181550194019201610791565b600585016000526020600020601f840160051c810160208510610836575b601f830160051c8201811061082a57505061065f565b60008155600101610814565b5080610814565b346100e25760003660031901126100e2576004546040516001600160a01b039091168152602090f35b346100e25760403660031901126100e25761087f610c1a565b6001600160a01b03166000908152600160205260409020805460243591908210156100e2576020916108b091610c70565b90546040519160031b1c8152f35b346100e25760203660031901126100e2576108d7610c1a565b6003546001600160a01b0391906108f19083163314610dbd565b166bffffffffffffffffffffffff60a01b6004541617600455600080f35b346100e25760203660031901126100e257600061014060405161093181610c9e565b828152826020820152826040820152826060820152826080820152606060a08201528260c08201528260e08201528261010082015282610120820152015260043560005260006020526040600020600a6040519161098e83610c9e565b8054835260018101546001600160a01b031660208401526002810154604084015260038101546060840152600481015460808401526109cf60058201610d17565b60a0840152600681015460c0840152600781015460e084015260ff6008820154161515610100840152600981015461012084015201546101408201526040518091602082528051602083015260018060a01b0360208201511660408301526040810151606083015260608101516080830152608081015160a083015260a0810151610140610a6b610160928360c0870152610180860190610c30565b9260c081015160e086015260e08101516101008601526101008101511515610120860152610120810151828601520151908301520390f35b346100e25760a03660031901126100e257600435608435610acf60018060a01b03600354163314610dbd565b816000526000602052610ae88260406000205414610e03565b816000526000602052610b0560ff60086040600020015416610e47565b816000526000602052604060002060243560028201556044356003820155606435600482015581610b59575b827f912ce63c438aca9d2f50d1d12de5b42efbcc84ce223b08122e8c2e3c000ca1f8600080a2005b6007610b689101918254610df6565b90558180610b31565b346100e2576020806003193601126100e257906001600160a01b03610b94610c1a565b1660005260018083526040600020928354808452818401908195600052826000209060005b818110610c075750505083610bcf910384610cbb565b60405192818401908285525180915260408401949160005b828110610bf45785870386f35b8351875295810195928101928401610be7565b8254845292840192918501918501610bb9565b600435906001600160a01b03821682036100e257565b919082519283825260005b848110610c5c575050826000602080949584010152601f8019910116010190565b602081830181015184830182015201610c3b565b8054821015610c885760005260206000200190600090565b634e487b7160e01b600052603260045260246000fd5b610160810190811067ffffffffffffffff82111761075f57604052565b90601f8019910116810190811067ffffffffffffffff82111761075f57604052565b90600182811c92168015610d0d575b6020831014610cf757565b634e487b7160e01b600052602260045260246000fd5b91607f1691610cec565b9060405191826000825492610d2b84610cdd565b908184526001948581169081600014610d9a5750600114610d57575b5050610d5592500383610cbb565b565b9093915060005260209081600020936000915b818310610d82575050610d5593508201013880610d47565b85548884018501529485019487945091830191610d6a565b915050610d5594506020925060ff191682840152151560051b8201013880610d47565b15610dc457565b60405162461bcd60e51b815260206004820152600a60248201526927b7363c9030b236b4b760b11b6044820152606490fd5b919082018092116104ad57565b15610e0a57565b60405162461bcd60e51b8152602060048201526015602482015274141bdb1a58de48191bd95cc81b9bdd08195e1a5cdd605a1b6044820152606490fd5b15610e4e57565b60405162461bcd60e51b8152602060048201526014602482015273506f6c696379206973206e6f742061637469766560601b6044820152606490fd5b15610e9157565b60405162461bcd60e51b815260206004820152601560248201527427b7363c9031b630b4b6b990383937b1b2b9b9b7b960591b6044820152606490fdfea2646970667358221220561acb700171db0fb354b395f3a0c6cc754e9ed07e83f5546d55ecfcdfa8317464736f6c63430008130033","opcodes":"PUSH1 0x80 DUP1 PUSH1 0x40 MSTORE CALLVALUE PUSH2 0x2D JUMPI PUSH1 0x1 PUSH1 0x2 SSTORE PUSH1 0x3 DUP1 SLOAD PUSH1 0x1 PUSH1 0x1 PUSH1 0xA0 SHL SUB NOT AND CALLER OR SWAP1 SSTORE PUSH2 0xF04 SWAP1 DUP2 PUSH2 0x33 DUP3 CODECOPY RETURN JUMPDEST PUSH1 0x0 DUP1 REVERT INVALID PUSH1 0x80 DUP1 PUSH1 0x40 MSTORE PUSH1 0x4 CALLDATASIZE LT ISZERO PUSH2 0x13 JUMPI PUSH1 0x0 DUP1 REVERT JUMPDEST PUSH1 0x0 CALLDATALOAD PUSH1 0xE0 SHR SWAP1 DUP2 PUSH4 0x19AC4614 EQ PUSH2 0xB71 JUMPI POP DUP1 PUSH4 0x26D13B00 EQ PUSH2 0xAA3 JUMPI DUP1 PUSH4 0x2B07FCE3 EQ PUSH2 0x90F JUMPI DUP1 PUSH4 0x3A8E94F5 EQ PUSH2 0x8BE JUMPI DUP1 PUSH4 0x3D36ADC5 EQ PUSH2 0x866 JUMPI DUP1 PUSH4 0x536A7E4F EQ PUSH2 0x83D JUMPI DUP1 PUSH4 0x76D0629E EQ PUSH2 0x4C3 JUMPI DUP1 PUSH4 0x8D3629C0 EQ PUSH2 0x3F3 JUMPI DUP1 PUSH4 0x943F31A6 EQ PUSH2 0x351 JUMPI DUP1 PUSH4 0xB20E8BCC EQ PUSH2 0x270 JUMPI DUP1 PUSH4 0xCAD0B8DB EQ PUSH2 0x252 JUMPI DUP1 PUSH4 0xD3E89483 EQ PUSH2 0x190 JUMPI DUP1 PUSH4 0xF8112568 EQ PUSH2 0xE7 JUMPI PUSH4 0xF851A440 EQ PUSH2 0xB9 JUMPI PUSH1 0x0 DUP1 REVERT JUMPDEST CALLVALUE PUSH2 0xE2 JUMPI PUSH1 0x0 CALLDATASIZE PUSH1 0x3 NOT ADD SLT PUSH2 0xE2 JUMPI PUSH1 0x3 SLOAD PUSH1 0x40 MLOAD PUSH1 0x1 PUSH1 0x1 PUSH1 0xA0 SHL SUB SWAP1 SWAP2 AND DUP2 MSTORE PUSH1 0x20 SWAP1 RETURN JUMPDEST PUSH1 0x0 DUP1 REVERT JUMPDEST CALLVALUE PUSH2 0xE2 JUMPI PUSH1 0x40 CALLDATASIZE PUSH1 0x3 NOT ADD SLT PUSH2 0xE2 JUMPI PUSH1 0x4 CALLDATALOAD PUSH32 0x899732479A7415C852B353630C0C7AA1A6F275D4E17E3196363D995B3E1DA72F PUSH1 0x20 PUSH1 0x24 CALLDATALOAD PUSH2 0x136 PUSH1 0x1 DUP1 PUSH1 0xA0 SHL SUB PUSH1 0x4 SLOAD AND CALLER EQ PUSH2 0xE8A JUMP JUMPDEST DUP4 PUSH1 0x0 MSTORE PUSH1 0x0 DUP3 MSTORE PUSH2 0x14E DUP5 PUSH1 0x40 PUSH1 0x0 KECCAK256 SLOAD EQ PUSH2 0xE03 JUMP JUMPDEST DUP4 PUSH1 0x0 MSTORE PUSH1 0x0 DUP3 MSTORE PUSH2 0x16A PUSH1 0xFF PUSH1 0x8 PUSH1 0x40 PUSH1 0x0 KECCAK256 ADD SLOAD AND PUSH2 0xE47 JUMP JUMPDEST DUP4 PUSH1 0x0 MSTORE PUSH1 0x0 DUP3 MSTORE PUSH1 0xA PUSH1 0x40 PUSH1 0x0 KECCAK256 ADD PUSH2 0x185 DUP3 DUP3 SLOAD PUSH2 0xDF6 JUMP JUMPDEST SWAP1 SSTORE PUSH1 0x40 MLOAD SWAP1 DUP2 MSTORE LOG2 STOP JUMPDEST CALLVALUE PUSH2 0xE2 JUMPI PUSH1 0x20 CALLDATASIZE PUSH1 0x3 NOT ADD SLT PUSH2 0xE2 JUMPI PUSH1 0x4 CALLDATALOAD PUSH1 0x0 MSTORE PUSH1 0x0 PUSH1 0x20 MSTORE PUSH1 0x40 PUSH1 0x0 KECCAK256 DUP1 SLOAD PUSH1 0x1 DUP1 PUSH1 0xA0 SHL SUB PUSH1 0x1 DUP4 ADD SLOAD AND SWAP2 PUSH1 0x2 DUP2 ADD SLOAD PUSH1 0x3 DUP3 ADD SLOAD SWAP2 PUSH1 0x4 DUP2 ADD SLOAD SWAP3 PUSH2 0x1DE PUSH1 0x5 DUP4 ADD PUSH2 0xD17 JUMP JUMPDEST SWAP4 PUSH2 0x22F PUSH1 0x6 DUP5 ADD SLOAD SWAP6 PUSH1 0x7 DUP6 ADD SLOAD SWAP3 PUSH1 0xFF PUSH1 0x8 DUP8 ADD SLOAD AND SWAP5 PUSH1 0xA PUSH1 0x9 DUP9 ADD SLOAD SWAP8 ADD SLOAD SWAP8 PUSH1 0x40 MLOAD SWAP12 DUP13 SWAP12 DUP13 MSTORE PUSH1 0x20 DUP13 ADD MSTORE PUSH1 0x40 DUP12 ADD MSTORE PUSH1 0x60 DUP11 ADD MSTORE PUSH1 0x80 DUP10 ADD MSTORE PUSH2 0x160 DUP1 PUSH1 0xA0 DUP11 ADD MSTORE DUP9 ADD SWAP1 PUSH2 0xC30 JUMP JUMPDEST SWAP5 PUSH1 0xC0 DUP8 ADD MSTORE PUSH1 0xE0 DUP7 ADD MSTORE ISZERO ISZERO PUSH2 0x100 DUP6 ADD MSTORE PUSH2 0x120 DUP5 ADD MSTORE PUSH2 0x140 DUP4 ADD MSTORE SUB SWAP1 RETURN JUMPDEST CALLVALUE PUSH2 0xE2 JUMPI PUSH1 0x0 CALLDATASIZE PUSH1 0x3 NOT ADD SLT PUSH2 0xE2 JUMPI PUSH1 0x20 PUSH1 0x2 SLOAD PUSH1 0x40 MLOAD SWAP1 DUP2 MSTORE RETURN JUMPDEST CALLVALUE PUSH2 0xE2 JUMPI PUSH1 0x20 CALLDATASIZE PUSH1 0x3 NOT ADD SLT PUSH2 0xE2 JUMPI PUSH1 0x4 CALLDATALOAD PUSH2 0x299 PUSH1 0x1 DUP1 PUSH1 0xA0 SHL SUB PUSH1 0x3 SLOAD AND CALLER EQ PUSH2 0xDBD JUMP JUMPDEST DUP1 PUSH1 0x0 MSTORE PUSH1 0x0 PUSH1 0x20 MSTORE PUSH2 0x2B2 DUP2 PUSH1 0x40 PUSH1 0x0 KECCAK256 SLOAD EQ PUSH2 0xE03 JUMP JUMPDEST DUP1 PUSH1 0x0 MSTORE PUSH1 0x0 PUSH1 0x20 MSTORE PUSH1 0xFF PUSH1 0x8 PUSH1 0x40 PUSH1 0x0 KECCAK256 ADD SLOAD AND ISZERO PUSH2 0x30C JUMPI DUP1 PUSH1 0x0 MSTORE PUSH1 0x0 PUSH1 0x20 MSTORE PUSH1 0x8 PUSH1 0x40 PUSH1 0x0 KECCAK256 ADD PUSH1 0xFF NOT DUP2 SLOAD AND SWAP1 SSTORE PUSH32 0xBB1AE509B65D9486A686F3F1B0435353031B5607109DC80AA4D063887E10F3E8 PUSH1 0x0 DUP1 LOG2 STOP JUMPDEST PUSH1 0x40 MLOAD PUSH3 0x461BCD PUSH1 0xE5 SHL DUP2 MSTORE PUSH1 0x20 PUSH1 0x4 DUP3 ADD MSTORE PUSH1 0x1A PUSH1 0x24 DUP3 ADD MSTORE PUSH32 0x506F6C69637920697320616C726561647920696E616374697665000000000000 PUSH1 0x44 DUP3 ADD MSTORE PUSH1 0x64 SWAP1 REVERT JUMPDEST CALLVALUE PUSH2 0xE2 JUMPI PUSH1 0x40 CALLDATASIZE PUSH1 0x3 NOT ADD SLT PUSH2 0xE2 JUMPI PUSH1 0x24 CALLDATALOAD PUSH1 0x1 PUSH1 0x1 PUSH1 0xA0 SHL SUB DUP2 DUP2 AND SWAP2 PUSH1 0x4 CALLDATALOAD SWAP1 DUP4 SWAP1 SUB PUSH2 0xE2 JUMPI PUSH1 0x20 SWAP3 DUP2 PUSH1 0x0 MSTORE PUSH1 0x0 DUP5 MSTORE PUSH1 0x40 PUSH1 0x0 KECCAK256 SWAP2 DUP3 SLOAD EQ SWAP3 DUP4 PUSH2 0x3E3 JUMPI JUMPDEST POP POP DUP2 PUSH2 0x3D4 JUMPI JUMPDEST DUP2 PUSH2 0x3C5 JUMPI JUMPDEST DUP2 PUSH2 0x3B6 JUMPI JUMPDEST POP PUSH1 0x40 MLOAD SWAP1 ISZERO ISZERO DUP2 MSTORE RETURN JUMPDEST PUSH1 0x7 SWAP2 POP ADD SLOAD TIMESTAMP GT ISZERO DUP3 PUSH2 0x3AB JUMP JUMPDEST PUSH1 0x6 DUP2 ADD SLOAD TIMESTAMP LT ISZERO SWAP2 POP PUSH2 0x3A5 JUMP JUMPDEST PUSH1 0x8 DUP2 ADD SLOAD PUSH1 0xFF AND SWAP2 POP PUSH2 0x39F JUMP JUMPDEST PUSH1 0x1 DUP4 ADD SLOAD AND EQ SWAP2 POP DUP4 DUP1 PUSH2 0x397 JUMP JUMPDEST CALLVALUE PUSH2 0xE2 JUMPI PUSH1 0x20 DUP1 PUSH1 0x3 NOT CALLDATASIZE ADD SLT PUSH2 0xE2 JUMPI PUSH1 0x4 CALLDATALOAD SWAP1 PUSH2 0x41E PUSH1 0x1 DUP1 PUSH1 0xA0 SHL SUB PUSH1 0x4 SLOAD AND CALLER EQ PUSH2 0xE8A JUMP JUMPDEST DUP2 PUSH1 0x0 MSTORE PUSH1 0x0 DUP2 MSTORE PUSH2 0x436 DUP3 PUSH1 0x40 PUSH1 0x0 KECCAK256 SLOAD EQ PUSH2 0xE03 JUMP JUMPDEST DUP2 PUSH1 0x0 MSTORE PUSH1 0x0 DUP2 MSTORE PUSH2 0x452 PUSH1 0xFF PUSH1 0x8 PUSH1 0x40 PUSH1 0x0 KECCAK256 ADD SLOAD AND PUSH2 0xE47 JUMP JUMPDEST DUP2 PUSH1 0x0 MSTORE PUSH1 0x0 DUP2 MSTORE PUSH1 0x9 PUSH1 0x40 PUSH1 0x0 KECCAK256 ADD SWAP1 DUP2 SLOAD PUSH1 0x1 DUP2 ADD DUP1 SWAP2 GT PUSH2 0x4AD JUMPI PUSH32 0xDE9D9328490FBF56BF6FB489AD69F4CC297E9642DA86FBD4F5C823494A4E01F6 SWAP3 SSTORE DUP3 PUSH1 0x0 MSTORE PUSH1 0x0 DUP2 MSTORE PUSH1 0x9 PUSH1 0x40 PUSH1 0x0 KECCAK256 ADD SLOAD PUSH1 0x40 MLOAD SWAP1 DUP2 MSTORE LOG2 STOP JUMPDEST PUSH4 0x4E487B71 PUSH1 0xE0 SHL PUSH1 0x0 MSTORE PUSH1 0x11 PUSH1 0x4 MSTORE PUSH1 0x24 PUSH1 0x0 REVERT JUMPDEST CALLVALUE PUSH2 0xE2 JUMPI PUSH1 0xC0 CALLDATASIZE PUSH1 0x3 NOT ADD SLT PUSH2 0xE2 JUMPI PUSH2 0x4DC PUSH2 0xC1A JUMP JUMPDEST PUSH1 0x84 CALLDATALOAD SWAP1 PUSH8 0xFFFFFFFFFFFFFFFF DUP3 GT PUSH2 0xE2 JUMPI CALLDATASIZE PUSH1 0x23 DUP4 ADD SLT ISZERO PUSH2 0xE2 JUMPI DUP2 PUSH1 0x4 ADD CALLDATALOAD PUSH8 0xFFFFFFFFFFFFFFFF DUP2 GT PUSH2 0x75F JUMPI PUSH1 0x40 MLOAD SWAP3 PUSH2 0x526 PUSH1 0x1F DUP4 ADD PUSH1 0x1F NOT AND PUSH1 0x20 ADD DUP6 PUSH2 0xCBB JUMP JUMPDEST DUP2 DUP5 MSTORE CALLDATASIZE PUSH1 0x24 DUP4 DUP4 ADD ADD GT PUSH2 0xE2 JUMPI DUP2 PUSH1 0x0 SWAP3 PUSH1 0x24 PUSH1 0x20 SWAP4 ADD DUP4 DUP8 ADD CALLDATACOPY DUP5 ADD ADD MSTORE PUSH2 0x55C PUSH1 0x1 DUP1 PUSH1 0xA0 SHL SUB PUSH1 0x3 SLOAD AND CALLER EQ PUSH2 0xDBD JUMP JUMPDEST PUSH1 0x2 SLOAD SWAP2 PUSH1 0x0 NOT DUP4 EQ PUSH2 0x4AD JUMPI PUSH1 0x1 DUP4 ADD PUSH1 0x2 SSTORE PUSH2 0x57C PUSH1 0xA4 CALLDATALOAD TIMESTAMP PUSH2 0xDF6 JUMP JUMPDEST PUSH1 0x40 MLOAD SWAP2 PUSH2 0x589 DUP4 PUSH2 0xC9E JUMP JUMPDEST DUP5 DUP4 MSTORE PUSH1 0x1 DUP1 PUSH1 0xA0 SHL SUB DUP5 AND PUSH1 0x20 DUP5 ADD MSTORE PUSH1 0x24 CALLDATALOAD PUSH1 0x40 DUP5 ADD MSTORE PUSH1 0x44 CALLDATALOAD PUSH1 0x60 DUP5 ADD MSTORE PUSH1 0x64 CALLDATALOAD PUSH1 0x80 DUP5 ADD MSTORE PUSH1 0xA0 DUP4 ADD MSTORE TIMESTAMP PUSH1 0xC0 DUP4 ADD MSTORE PUSH1 0xE0 DUP3 ADD MSTORE PUSH1 0x1 PUSH2 0x100 DUP3 ADD MSTORE PUSH1 0x0 PUSH2 0x120 DUP3 ADD MSTORE PUSH1 0x0 PUSH2 0x140 DUP3 ADD MSTORE DUP3 PUSH1 0x0 MSTORE PUSH1 0x0 PUSH1 0x20 MSTORE PUSH1 0x40 PUSH1 0x0 KECCAK256 SWAP1 DUP1 MLOAD DUP3 SSTORE PUSH1 0x1 DUP3 ADD PUSH1 0x1 DUP1 PUSH1 0xA0 SHL SUB PUSH1 0x20 DUP4 ADD MLOAD AND PUSH12 0xFFFFFFFFFFFFFFFFFFFFFFFF PUSH1 0xA0 SHL DUP3 SLOAD AND OR SWAP1 SSTORE PUSH1 0x40 DUP2 ADD MLOAD PUSH1 0x2 DUP4 ADD SSTORE PUSH1 0x60 DUP2 ADD MLOAD PUSH1 0x3 DUP4 ADD SSTORE PUSH1 0x80 DUP2 ADD MLOAD PUSH1 0x4 DUP4 ADD SSTORE PUSH1 0xA0 DUP2 ADD MLOAD DUP1 MLOAD SWAP1 PUSH8 0xFFFFFFFFFFFFFFFF DUP3 GT PUSH2 0x75F JUMPI PUSH2 0x656 PUSH1 0x5 DUP6 ADD SLOAD PUSH2 0xCDD JUMP JUMPDEST PUSH1 0x1F DUP2 GT PUSH2 0x7F6 JUMPI JUMPDEST POP PUSH1 0x20 SWAP1 PUSH1 0x1F DUP4 GT PUSH1 0x1 EQ PUSH2 0x780 JUMPI SWAP2 DUP1 PUSH1 0xA SWAP5 SWAP3 PUSH2 0x140 SWAP5 PUSH1 0x0 SWAP3 PUSH2 0x775 JUMPI JUMPDEST POP POP DUP2 PUSH1 0x1 SHL SWAP2 PUSH1 0x0 NOT SWAP1 PUSH1 0x3 SHL SHR NOT AND OR PUSH1 0x5 DUP6 ADD SSTORE JUMPDEST PUSH1 0xC0 DUP2 ADD MLOAD PUSH1 0x6 DUP6 ADD SSTORE PUSH1 0xE0 DUP2 ADD MLOAD PUSH1 0x7 DUP6 ADD SSTORE PUSH1 0x8 DUP5 ADD PUSH2 0x100 DUP3 ADD MLOAD ISZERO ISZERO PUSH1 0xFF DUP1 NOT DUP4 SLOAD AND SWAP2 AND OR SWAP1 SSTORE PUSH2 0x120 DUP2 ADD MLOAD PUSH1 0x9 DUP6 ADD SSTORE ADD MLOAD SWAP2 ADD SSTORE PUSH1 0x1 DUP1 PUSH1 0xA0 SHL SUB DUP2 AND PUSH1 0x0 MSTORE PUSH1 0x1 PUSH1 0x20 MSTORE PUSH1 0x40 PUSH1 0x0 KECCAK256 SWAP2 DUP3 SLOAD SWAP3 PUSH9 0x10000000000000000 DUP5 LT ISZERO PUSH2 0x75F JUMPI DUP4 PUSH2 0x711 SWAP2 PUSH1 0x1 PUSH1 0x20 SWAP7 ADD DUP2 SSTORE PUSH2 0xC70 JUMP JUMPDEST DUP2 SLOAD PUSH1 0x0 NOT PUSH1 0x3 SWAP3 SWAP1 SWAP3 SHL SWAP2 DUP3 SHL NOT AND SWAP1 DUP4 SWAP1 SHL OR SWAP1 SSTORE PUSH1 0x40 MLOAD SWAP2 PUSH1 0x1 PUSH1 0x1 PUSH1 0xA0 SHL SUB AND DUP2 PUSH32 0x692975D6D42AEC50E0F6FF672ACDE3BF011E71355ED86DD49DE0A1F533950CBA PUSH1 0x0 DUP1 LOG3 DUP2 MSTORE RETURN JUMPDEST PUSH4 0x4E487B71 PUSH1 0xE0 SHL PUSH1 0x0 MSTORE PUSH1 0x41 PUSH1 0x4 MSTORE PUSH1 0x24 PUSH1 0x0 REVERT JUMPDEST ADD MLOAD SWAP1 POP DUP9 DUP1 PUSH2 0x680 JUMP JUMPDEST SWAP1 PUSH1 0x5 DUP6 ADD PUSH1 0x0 MSTORE PUSH1 0x20 PUSH1 0x0 KECCAK256 SWAP2 PUSH1 0x0 JUMPDEST PUSH1 0x1F NOT DUP6 AND DUP2 LT PUSH2 0x7DE JUMPI POP SWAP3 PUSH1 0xA SWAP5 SWAP3 PUSH1 0x1 SWAP3 PUSH2 0x140 SWAP6 DUP4 PUSH1 0x1F NOT DUP2 AND LT PUSH2 0x7C5 JUMPI JUMPDEST POP POP POP DUP2 SHL ADD PUSH1 0x5 DUP6 ADD SSTORE PUSH2 0x698 JUMP JUMPDEST ADD MLOAD PUSH1 0x0 NOT PUSH1 0xF8 DUP5 PUSH1 0x3 SHL AND SHR NOT AND SWAP1 SSTORE DUP9 DUP1 DUP1 PUSH2 0x7B5 JUMP JUMPDEST SWAP2 SWAP3 PUSH1 0x20 PUSH1 0x1 DUP2 SWAP3 DUP7 DUP6 ADD MLOAD DUP2 SSTORE ADD SWAP5 ADD SWAP3 ADD PUSH2 0x791 JUMP JUMPDEST PUSH1 0x5 DUP6 ADD PUSH1 0x0 MSTORE PUSH1 0x20 PUSH1 0x0 KECCAK256 PUSH1 0x1F DUP5 ADD PUSH1 0x5 SHR DUP2 ADD PUSH1 0x20 DUP6 LT PUSH2 0x836 JUMPI JUMPDEST PUSH1 0x1F DUP4 ADD PUSH1 0x5 SHR DUP3 ADD DUP2 LT PUSH2 0x82A JUMPI POP POP PUSH2 0x65F JUMP JUMPDEST PUSH1 0x0 DUP2 SSTORE PUSH1 0x1 ADD PUSH2 0x814 JUMP JUMPDEST POP DUP1 PUSH2 0x814 JUMP JUMPDEST CALLVALUE PUSH2 0xE2 JUMPI PUSH1 0x0 CALLDATASIZE PUSH1 0x3 NOT ADD SLT PUSH2 0xE2 JUMPI PUSH1 0x4 SLOAD PUSH1 0x40 MLOAD PUSH1 0x1 PUSH1 0x1 PUSH1 0xA0 SHL SUB SWAP1 SWAP2 AND DUP2 MSTORE PUSH1 0x20 SWAP1 RETURN JUMPDEST CALLVALUE PUSH2 0xE2 JUMPI PUSH1 0x40 CALLDATASIZE PUSH1 0x3 NOT ADD SLT PUSH2 0xE2 JUMPI PUSH2 0x87F PUSH2 0xC1A JUMP JUMPDEST PUSH1 0x1 PUSH1 0x1 PUSH1 0xA0 SHL SUB AND PUSH1 0x0 SWAP1 DUP2 MSTORE PUSH1 0x1 PUSH1 0x20 MSTORE PUSH1 0x40 SWAP1 KECCAK256 DUP1 SLOAD PUSH1 0x24 CALLDATALOAD SWAP2 SWAP1 DUP3 LT ISZERO PUSH2 0xE2 JUMPI PUSH1 0x20 SWAP2 PUSH2 0x8B0 SWAP2 PUSH2 0xC70 JUMP JUMPDEST SWAP1 SLOAD PUSH1 0x40 MLOAD SWAP2 PUSH1 0x3 SHL SHR DUP2 MSTORE RETURN JUMPDEST CALLVALUE PUSH2 0xE2 JUMPI PUSH1 0x20 CALLDATASIZE PUSH1 0x3 NOT ADD SLT PUSH2 0xE2 JUMPI PUSH2 0x8D7 PUSH2 0xC1A JUMP JUMPDEST PUSH1 0x3 SLOAD PUSH1 0x1 PUSH1 0x1 PUSH1 0xA0 SHL SUB SWAP2 SWAP1 PUSH2 0x8F1 SWAP1 DUP4 AND CALLER EQ PUSH2 0xDBD JUMP JUMPDEST AND PUSH12 0xFFFFFFFFFFFFFFFFFFFFFFFF PUSH1 0xA0 SHL PUSH1 0x4 SLOAD AND OR PUSH1 0x4 SSTORE PUSH1 0x0 DUP1 RETURN JUMPDEST CALLVALUE PUSH2 0xE2 JUMPI PUSH1 0x20 CALLDATASIZE PUSH1 0x3 NOT ADD SLT PUSH2 0xE2 JUMPI PUSH1 0x0 PUSH2 0x140 PUSH1 0x40 MLOAD PUSH2 0x931 DUP2 PUSH2 0xC9E JUMP JUMPDEST DUP3 DUP2 MSTORE DUP3 PUSH1 0x20 DUP3 ADD MSTORE DUP3 PUSH1 0x40 DUP3 ADD MSTORE DUP3 PUSH1 0x60 DUP3 ADD MSTORE DUP3 PUSH1 0x80 DUP3 ADD MSTORE PUSH1 0x60 PUSH1 0xA0 DUP3 ADD MSTORE DUP3 PUSH1 0xC0 DUP3 ADD MSTORE DUP3 PUSH1 0xE0 DUP3 ADD MSTORE DUP3 PUSH2 0x100 DUP3 ADD MSTORE DUP3 PUSH2 0x120 DUP3 ADD MSTORE ADD MSTORE PUSH1 0x4 CALLDATALOAD PUSH1 0x0 MSTORE PUSH1 0x0 PUSH1 0x20 MSTORE PUSH1 0x40 PUSH1 0x0 KECCAK256 PUSH1 0xA PUSH1 0x40 MLOAD SWAP2 PUSH2 0x98E DUP4 PUSH2 0xC9E JUMP JUMPDEST DUP1 SLOAD DUP4 MSTORE PUSH1 0x1 DUP2 ADD SLOAD PUSH1 0x1 PUSH1 0x1 PUSH1 0xA0 SHL SUB AND PUSH1 0x20 DUP5 ADD MSTORE PUSH1 0x2 DUP2 ADD SLOAD PUSH1 0x40 DUP5 ADD MSTORE PUSH1 0x3 DUP2 ADD SLOAD PUSH1 0x60 DUP5 ADD MSTORE PUSH1 0x4 DUP2 ADD SLOAD PUSH1 0x80 DUP5 ADD MSTORE PUSH2 0x9CF PUSH1 0x5 DUP3 ADD PUSH2 0xD17 JUMP JUMPDEST PUSH1 0xA0 DUP5 ADD MSTORE PUSH1 0x6 DUP2 ADD SLOAD PUSH1 0xC0 DUP5 ADD MSTORE PUSH1 0x7 DUP2 ADD SLOAD PUSH1 0xE0 DUP5 ADD MSTORE PUSH1 0xFF PUSH1 0x8 DUP3 ADD SLOAD AND ISZERO ISZERO PUSH2 0x100 DUP5 ADD MSTORE PUSH1 0x9 DUP2 ADD SLOAD PUSH2 0x120 DUP5 ADD MSTORE ADD SLOAD PUSH2 0x140 DUP3 ADD MSTORE PUSH1 0x40 MLOAD DUP1 SWAP2 PUSH1 0x20 DUP3 MSTORE DUP1 MLOAD PUSH1 0x20 DUP4 ADD MSTORE PUSH1 0x1 DUP1 PUSH1 0xA0 SHL SUB PUSH1 0x20 DUP3 ADD MLOAD AND PUSH1 0x40 DUP4 ADD MSTORE PUSH1 0x40 DUP2 ADD MLOAD PUSH1 0x60 DUP4 ADD MSTORE PUSH1 0x60 DUP2 ADD MLOAD PUSH1 0x80 DUP4 ADD MSTORE PUSH1 0x80 DUP2 ADD MLOAD PUSH1 0xA0 DUP4 ADD MSTORE PUSH1 0xA0 DUP2 ADD MLOAD PUSH2 0x140 PUSH2 0xA6B PUSH2 0x160 SWAP3 DUP4 PUSH1 0xC0 DUP8 ADD MSTORE PUSH2 0x180 DUP7 ADD SWAP1 PUSH2 0xC30 JUMP JUMPDEST SWAP3 PUSH1 0xC0 DUP2 ADD MLOAD PUSH1 0xE0 DUP7 ADD MSTORE PUSH1 0xE0 DUP2 ADD MLOAD PUSH2 0x100 DUP7 ADD MSTORE PUSH2 0x100 DUP2 ADD MLOAD ISZERO ISZERO PUSH2 0x120 DUP7 ADD MSTORE PUSH2 0x120 DUP2 ADD MLOAD DUP3 DUP7 ADD MSTORE ADD MLOAD SWAP1 DUP4 ADD MSTORE SUB SWAP1 RETURN JUMPDEST CALLVALUE PUSH2 0xE2 JUMPI PUSH1 0xA0 CALLDATASIZE PUSH1 0x3 NOT ADD SLT PUSH2 0xE2 JUMPI PUSH1 0x4 CALLDATALOAD PUSH1 0x84 CALLDATALOAD PUSH2 0xACF PUSH1 0x1 DUP1 PUSH1 0xA0 SHL SUB PUSH1 0x3 SLOAD AND CALLER EQ PUSH2 0xDBD JUMP JUMPDEST DUP2 PUSH1 0x0 MSTORE PUSH1 0x0 PUSH1 0x20 MSTORE PUSH2 0xAE8 DUP3 PUSH1 0x40 PUSH1 0x0 KECCAK256 SLOAD EQ PUSH2 0xE03 JUMP JUMPDEST DUP2 PUSH1 0x0 MSTORE PUSH1 0x0 PUSH1 0x20 MSTORE PUSH2 0xB05 PUSH1 0xFF PUSH1 0x8 PUSH1 0x40 PUSH1 0x0 KECCAK256 ADD SLOAD AND PUSH2 0xE47 JUMP JUMPDEST DUP2 PUSH1 0x0 MSTORE PUSH1 0x0 PUSH1 0x20 MSTORE PUSH1 0x40 PUSH1 0x0 KECCAK256 PUSH1 0x24 CALLDATALOAD PUSH1 0x2 DUP3 ADD SSTORE PUSH1 0x44 CALLDATALOAD PUSH1 0x3 DUP3 ADD SSTORE PUSH1 0x64 CALLDATALOAD PUSH1 0x4 DUP3 ADD SSTORE DUP2 PUSH2 0xB59 JUMPI JUMPDEST DUP3 PUSH32 0x912CE63C438ACA9D2F50D1D12DE5B42EFBCC84CE223B08122E8C2E3C000CA1F8 PUSH1 0x0 DUP1 LOG2 STOP JUMPDEST PUSH1 0x7 PUSH2 0xB68 SWAP2 ADD SWAP2 DUP3 SLOAD PUSH2 0xDF6 JUMP JUMPDEST SWAP1 SSTORE DUP2 DUP1 PUSH2 0xB31 JUMP JUMPDEST CALLVALUE PUSH2 0xE2 JUMPI PUSH1 0x20 DUP1 PUSH1 0x3 NOT CALLDATASIZE ADD SLT PUSH2 0xE2 JUMPI SWAP1 PUSH1 0x1 PUSH1 0x1 PUSH1 0xA0 SHL SUB PUSH2 0xB94 PUSH2 0xC1A JUMP JUMPDEST AND PUSH1 0x0 MSTORE PUSH1 0x1 DUP1 DUP4 MSTORE PUSH1 0x40 PUSH1 0x0 KECCAK256 SWAP3 DUP4 SLOAD DUP1 DUP5 MSTORE DUP2 DUP5 ADD SWAP1 DUP2 SWAP6 PUSH1 0x0 MSTORE DUP3 PUSH1 0x0 KECCAK256 SWAP1 PUSH1 0x0 JUMPDEST DUP2 DUP2 LT PUSH2 0xC07 JUMPI POP POP POP DUP4 PUSH2 0xBCF SWAP2 SUB DUP5 PUSH2 0xCBB JUMP JUMPDEST PUSH1 0x40 MLOAD SWAP3 DUP2 DUP5 ADD SWAP1 DUP3 DUP6 MSTORE MLOAD DUP1 SWAP2 MSTORE PUSH1 0x40 DUP5 ADD SWAP5 SWAP2 PUSH1 0x0 JUMPDEST DUP3 DUP2 LT PUSH2 0xBF4 JUMPI DUP6 DUP8 SUB DUP7 RETURN JUMPDEST DUP4 MLOAD DUP8 MSTORE SWAP6 DUP2 ADD SWAP6 SWAP3 DUP2 ADD SWAP3 DUP5 ADD PUSH2 0xBE7 JUMP JUMPDEST DUP3 SLOAD DUP5 MSTORE SWAP3 DUP5 ADD SWAP3 SWAP2 DUP6 ADD SWAP2 DUP6 ADD PUSH2 0xBB9 JUMP JUMPDEST PUSH1 0x4 CALLDATALOAD SWAP1 PUSH1 0x1 PUSH1 0x1 PUSH1 0xA0 SHL SUB DUP3 AND DUP3 SUB PUSH2 0xE2 JUMPI JUMP JUMPDEST SWAP2 SWAP1 DUP3 MLOAD SWAP3 DUP4 DUP3 MSTORE PUSH1 0x0 JUMPDEST DUP5 DUP2 LT PUSH2 0xC5C JUMPI POP POP DUP3 PUSH1 0x0 PUSH1 0x20 DUP1 SWAP5 SWAP6 DUP5 ADD ADD MSTORE PUSH1 0x1F DUP1 NOT SWAP2 ADD AND ADD ADD SWAP1 JUMP JUMPDEST PUSH1 0x20 DUP2 DUP4 ADD DUP2 ADD MLOAD DUP5 DUP4 ADD DUP3 ADD MSTORE ADD PUSH2 0xC3B JUMP JUMPDEST DUP1 SLOAD DUP3 LT ISZERO PUSH2 0xC88 JUMPI PUSH1 0x0 MSTORE PUSH1 0x20 PUSH1 0x0 KECCAK256 ADD SWAP1 PUSH1 0x0 SWAP1 JUMP JUMPDEST PUSH4 0x4E487B71 PUSH1 0xE0 SHL PUSH1 0x0 MSTORE PUSH1 0x32 PUSH1 0x4 MSTORE PUSH1 0x24 PUSH1 0x0 REVERT JUMPDEST PUSH2 0x160 DUP2 ADD SWAP1 DUP2 LT PUSH8 0xFFFFFFFFFFFFFFFF DUP3 GT OR PUSH2 0x75F JUMPI PUSH1 0x40 MSTORE JUMP JUMPDEST SWAP1 PUSH1 0x1F DUP1 NOT SWAP2 ADD AND DUP2 ADD SWAP1 DUP2 LT PUSH8 0xFFFFFFFFFFFFFFFF DUP3 GT OR PUSH2 0x75F JUMPI PUSH1 0x40 MSTORE JUMP JUMPDEST SWAP1 PUSH1 0x1 DUP3 DUP2 SHR SWAP3 AND DUP1 ISZERO PUSH2 0xD0D JUMPI JUMPDEST PUSH1 0x20 DUP4 LT EQ PUSH2 0xCF7 JUMPI JUMP JUMPDEST PUSH4 0x4E487B71 PUSH1 0xE0 SHL PUSH1 0x0 MSTORE PUSH1 0x22 PUSH1 0x4 MSTORE PUSH1 0x24 PUSH1 0x0 REVERT JUMPDEST SWAP2 PUSH1 0x7F AND SWAP2 PUSH2 0xCEC JUMP JUMPDEST SWAP1 PUSH1 0x40 MLOAD SWAP2 DUP3 PUSH1 0x0 DUP3 SLOAD SWAP3 PUSH2 0xD2B DUP5 PUSH2 0xCDD JUMP JUMPDEST SWAP1 DUP2 DUP5 MSTORE PUSH1 0x1 SWAP5 DUP6 DUP2 AND SWAP1 DUP2 PUSH1 0x0 EQ PUSH2 0xD9A JUMPI POP PUSH1 0x1 EQ PUSH2 0xD57 JUMPI JUMPDEST POP POP PUSH2 0xD55 SWAP3 POP SUB DUP4 PUSH2 0xCBB JUMP JUMPDEST JUMP JUMPDEST SWAP1 SWAP4 SWAP2 POP PUSH1 0x0 MSTORE PUSH1 0x20 SWAP1 DUP2 PUSH1 0x0 KECCAK256 SWAP4 PUSH1 0x0 SWAP2 JUMPDEST DUP2 DUP4 LT PUSH2 0xD82 JUMPI POP POP PUSH2 0xD55 SWAP4 POP DUP3 ADD ADD CODESIZE DUP1 PUSH2 0xD47 JUMP JUMPDEST DUP6 SLOAD DUP9 DUP5 ADD DUP6 ADD MSTORE SWAP5 DUP6 ADD SWAP5 DUP8 SWAP5 POP SWAP2 DUP4 ADD SWAP2 PUSH2 0xD6A JUMP JUMPDEST SWAP2 POP POP PUSH2 0xD55 SWAP5 POP PUSH1 0x20 SWAP3 POP PUSH1 0xFF NOT AND DUP3 DUP5 ADD MSTORE ISZERO ISZERO PUSH1 0x5 SHL DUP3 ADD ADD CODESIZE DUP1 PUSH2 0xD47 JUMP JUMPDEST ISZERO PUSH2 0xDC4 JUMPI JUMP JUMPDEST PUSH1 0x40 MLOAD PUSH3 0x461BCD PUSH1 0xE5 SHL DUP2 MSTORE PUSH1 0x20 PUSH1 0x4 DUP3 ADD MSTORE PUSH1 0xA PUSH1 0x24 DUP3 ADD MSTORE PUSH10 0x27B7363C9030B236B4B7 PUSH1 0xB1 SHL PUSH1 0x44 DUP3 ADD MSTORE PUSH1 0x64 SWAP1 REVERT JUMPDEST SWAP2 SWAP1 DUP3 ADD DUP1 SWAP3 GT PUSH2 0x4AD JUMPI JUMP JUMPDEST ISZERO PUSH2 0xE0A JUMPI JUMP JUMPDEST PUSH1 0x40 MLOAD PUSH3 0x461BCD PUSH1 0xE5 SHL DUP2 MSTORE PUSH1 0x20 PUSH1 0x4 DUP3 ADD MSTORE PUSH1 0x15 PUSH1 0x24 DUP3 ADD MSTORE PUSH21 0x141BDB1A58DE48191BD95CC81B9BDD08195E1A5CDD PUSH1 0x5A SHL PUSH1 0x44 DUP3 ADD MSTORE PUSH1 0x64 SWAP1 REVERT JUMPDEST ISZERO PUSH2 0xE4E JUMPI JUMP JUMPDEST PUSH1 0x40 MLOAD PUSH3 0x461BCD PUSH1 0xE5 SHL DUP2 MSTORE PUSH1 0x20 PUSH1 0x4 DUP3 ADD MSTORE PUSH1 0x14 PUSH1 0x24 DUP3 ADD MSTORE PUSH20 0x506F6C696379206973206E6F7420616374697665 PUSH1 0x60 SHL PUSH1 0x44 DUP3 ADD MSTORE PUSH1 0x64 SWAP1 REVERT JUMPDEST ISZERO PUSH2 0xE91 JUMPI JUMP JUMPDEST PUSH1 0x40 MLOAD PUSH3 0x461BCD PUSH1 0xE5 SHL DUP2 MSTORE PUSH1 0x20 PUSH1 0x4 DUP3 ADD MSTORE PUSH1 0x15 PUSH1 0x24 DUP3 ADD MSTORE PUSH21 0x27B7363C9031B630B4B6B990383937B1B2B9B9B7B9 PUSH1 0x59 SHL PUSH1 0x44 DUP3 ADD MSTORE PUSH1 0x64 SWAP1 REVERT INVALID LOG2 PUSH5 0x6970667358 0x22 SLT KECCAK256 JUMP BYTE 0xCB PUSH17 0x171DB0FB354B395F3A0C6CC754E9ED07E DUP4 CREATE2 SLOAD PUSH14 0x55ECFCDFA8317464736F6C634300 ADDMOD SGT STOP CALLER "},"methodIdentifiers":{"admin()":"f851a440","cancelPolicy(uint256)":"b20e8bcc","claimsProcessor()":"536a7e4f","createPolicy(address,uint256,uint256,uint256,string,uint256)":"76d0629e","getPolicy(uint256)":"2b07fce3","getUserPolicies(address)":"19ac4614","incrementClaimCount(uint256)":"8d3629c0","isPolicyValidForClaims(uint256,address)":"943f31a6","nextPolicyId()":"cad0b8db","policies(uint256)":"d3e89483","recordPayout(uint256,uint256)":"f8112568","setClaimsProcessor(address)":"3a8e94f5","updatePolicy(uint256,uint256,uint256,uint256,uint256)":"26d13b00","userPolicies(address,uint256)":"3d36adc5"}}}}}