{"contracts/PayoutManager.sol":{"PayoutManager":{"abi":[{"inputs":[{"internalType":"address","name":"_claimsProcessor","type":"address"},{"internalType":"address","name":"_priceFeed","type":"address"}],"stateMutability":"nonpayable","type":"constructor"},{"anonymous":false,"inputs":[{"indexed":true,"internalType":"address","name":"depositor","type":"address"},{"indexed":false,"internalType":"uint256","name":"amount","type":"uint256"}],"name":"FundsDeposited","type":"event"},{"anonymous":false,"inputs":[{"indexed":true,"internalType":"address","name":"recipient","type":"address"},{"indexed":false,"internalType":"uint256","name":"amount","type":"uint256"}],"name":"FundsWithdrawn","type":"event"},{"anonymous":false,"inputs":[{"indexed":true,"internalType":"uint256","name":"claimId","type":"uint256"},{"indexed":true,"internalType":"address","name":"recipient","type":"address"},{"indexed":false,"internalType":"uint256","name":"usdAmount","type":"uint256"},{"indexed":false,"internalType":"uint256","name":"avaxAmount","type":"uint256"}],"name":"PayoutProcessed","type":"event"},{"inputs":[],"name":"admin","outputs":[{"internalType":"address","name":"","type":"address"}],"stateMutability":"view","type":"function"},{"inputs":[],"name":"availableFunds","outputs":[{"internalType":"uint256","name":"","type":"uint256"}],"stateMutability":"view","type":"function"},{"inputs":[{"internalType":"address","name":"","type":"address"}],"name":"balances","outputs":[{"internalType":"uint256","name":"","type":"uint256"}],"stateMutability":"view","type":"function"},{"inputs":[],"name":"claimsProcessor","outputs":[{"internalType":"address","name":"","type":"address"}],"stateMutability":"view","type":"function"},{"inputs":[{"internalType":"uint256","name":"_usdAmount","type":"uint256"}],"name":"convertUSDToAVAX","outputs":[{"internalType":"uint256","name":"","type":"uint256"}],"stateMutability":"view","type":"function"},{"inputs":[],"name":"deposit","outputs":[],"stateMutability":"payable","type":"function"},{"inputs":[],"name":"getContractBalance","outputs":[{"internalType":"uint256","name":"","type":"uint256"}],"stateMutability":"view","type":"function"},{"inputs":[{"internalType":"uint256","name":"_claimId","type":"uint256"}],"name":"getPayoutDetails","outputs":[{"components":[{"internalType":"uint256","name":"claimId","type":"uint256"},{"internalType":"address","name":"recipient","type":"address"},{"internalType":"uint256","name":"usdAmount","type":"uint256"},{"internalType":"uint256","name":"avaxAmount","type":"uint256"},{"internalType":"uint256","name":"timestamp","type":"uint256"},{"internalType":"bool","name":"processed","type":"bool"},{"internalType":"bool","name":"withdrawn","type":"bool"}],"internalType":"struct PayoutManager.Payout","name":"","type":"tuple"}],"stateMutability":"view","type":"function"},{"inputs":[{"internalType":"address","name":"_user","type":"address"}],"name":"getUserBalance","outputs":[{"internalType":"uint256","name":"","type":"uint256"}],"stateMutability":"view","type":"function"},{"inputs":[{"internalType":"uint256","name":"","type":"uint256"}],"name":"payouts","outputs":[{"internalType":"uint256","name":"claimId","type":"uint256"},{"internalType":"address","name":"recipient","type":"address"},{"internalType":"uint256","name":"usdAmount","type":"uint256"},{"internalType":"uint256","name":"avaxAmount","type":"uint256"},{"internalType":"uint256","name":"timestamp","type":"uint256"},{"internalType":"bool","name":"processed","type":"bool"},{"internalType":"bool","name":"withdrawn","type":"bool"}],"stateMutability":"view","type":"function"},{"inputs":[],"name":"priceFeed","outputs":[{"internalType":"contract AggregatorV3Interface","name":"","type":"address"}],"stateMutability":"view","type":"function"},{"inputs":[{"internalType":"uint256","name":"_claimId","type":"uint256"},{"internalType":"address","name":"_recipient","type":"address"},{"internalType":"uint256","name":"_usdAmount","type":"uint256"}],"name":"processPayout","outputs":[],"stateMutability":"nonpayable","type":"function"},{"inputs":[{"internalType":"address","name":"_priceFeed","type":"address"}],"name":"setPriceFeed","outputs":[],"stateMutability":"nonpayable","type":"function"},{"inputs":[{"internalType":"address","name":"_treasury","type":"address"}],"name":"setTreasury","outputs":[],"stateMutability":"nonpayable","type":"function"},{"inputs":[],"name":"totalPayouts","outputs":[{"internalType":"uint256","name":"","type":"uint256"}],"stateMutability":"view","type":"function"},{"inputs":[],"name":"totalWithdrawn","outputs":[{"internalType":"uint256","name":"","type":"uint256"}],"stateMutability":"view","type":"function"},{"inputs":[],"name":"treasury","outputs":[{"internalType":"address","name":"","type":"address"}],"stateMutability":"view","type":"function"},{"inputs":[],"name":"withdraw","outputs":[],"stateMutability":"nonpayable","type":"function"},{"inputs":[{"internalType":"uint256","name":"_amount","type":"uint256"}],"name":"withdrawToTreasury","outputs":[],"stateMutability":"nonpayable","type":"function"},{"stateMutability":"payable","type":"receive"}],"evm":{"bytecode":{"linkReferences":{},"object":"60803461009b57601f610c8338819003918201601f19168301916001600160401b038311848410176100a057808492604094855283398101031261009b57610052602061004b836100b6565b92016100b6565b60018060a01b03908160018060a01b03199316836002541617600255168160055416176005553381600354161760035533906004541617600455604051610bb890816100cb8239f35b600080fd5b634e487b7160e01b600052604160045260246000fd5b51906001600160a01b038216820361009b5756fe608060408181526004918236101561002a575b505050361561002057600080fd5b610028610b45565b005b600092833560e01c9182631faa0414146107c75750816327e235e31461061b57816329652e861461074f5781633ccfd60b146106915781634089b1701461067257816346fcff4c14610653578163477348921461061b5781634b319713146105fc578163536a7e4f146105d357816361d027b3146105ab5781636f9fb98a14610590578163724e78da14610540578163741bef1a14610517578163abae70c51461042a578163c0348b0714610403578163ca4c334614610199578163d0e30db01461017f578163f0f4426014610136575063f851a4401461010b5780610012565b3461013257816003193601126101325760035490516001600160a01b039091168152602090f35b5080fd5b839034610132576020366003190112610132576101516108b7565b6003546001600160a01b03919061016b90831633146108d2565b82546001600160a01b031916911617905580f35b838060031936011261019657610193610b45565b80f35b80fd5b919050346103ff5760603660031901126103ff576024356001600160a01b0381811693803593928590036103fb5760443591806002541633036103c0578487526020908782528488205461037d57831561033a576101f6846109a6565b9283600854106103025786600587969594938b937fb4aeb9fb59644d1c26001b986295cde5bbfae34be7c5240fbccf4c37308e20fe9951916102378361090b565b8483528683018d81528a84018a815260608501918a835260808601934285528d60a088019a60018c5260c089019a818c528152808d522096518755600187019151166bffffffffffffffffffffffff60a01b825416179055516002850155516003840155519082015501915115159060ff61ff0084549251151560081b1692169061ffff191617179055868852600181528388206102d683825461095f565b90556102e482600854610982565b6008556102f38260065461095f565b6006558351928352820152a380f35b855162461bcd60e51b81529081018390526012602482015271496e73756666696369656e742066756e647360701b6044820152606490fd5b845162461bcd60e51b8152808401839052601760248201527f416d6f756e74206d75737420626520706f7369746976650000000000000000006044820152606490fd5b845162461bcd60e51b8152808401839052601860248201527f5061796f757420616c72656164792070726f63657373656400000000000000006044820152606490fd5b835162461bcd60e51b8152602081840152601560248201527427b7363c9031b630b4b6b990383937b1b2b9b9b7b960591b6044820152606490fd5b8580fd5b8280fd5b8284346101965760203660031901126101965750610423602092356109a6565b9051908152f35b9050346103ff5760203660031901126103ff576003548135916001600160a01b039161045990831633146108d2565b6104726104694760065490610982565b6007549061095f565b83116104d457916020917feaff4b37086828766ad3268786972c0cd24259d4c87a80f9d3963a3c3d999b0d936104aa83600854610982565b6008556104c98780808087878754165af16104c3610ac7565b50610b07565b54169351908152a280f35b606490602085519162461bcd60e51b8352820152601760248201527f4578636565647320617661696c61626c652066756e64730000000000000000006044820152fd5b50503461013257816003193601126101325760055490516001600160a01b039091168152602090f35b83346101965760203660031901126101965761055a6108b7565b6003546001600160a01b03919061057490831633146108d2565b166bffffffffffffffffffffffff60a01b600554161760055580f35b50503461013257816003193601126101325751478152602090f35b9050346103ff57826003193601126103ff575490516001600160a01b03909116815260209150f35b50503461013257816003193601126101325760025490516001600160a01b039091168152602090f35b5050346101325781600319360112610132576020906007549051908152f35b5050346101325760203660031901126101325760209181906001600160a01b036106436108b7565b1681526001845220549051908152f35b5050346101325781600319360112610132576020906008549051908152f35b5050346101325781600319360112610132576020906006549051908152f35b919050346103ff57826003193601126103ff573383526001602052808320549182156107145750338352600160205282818120556106d88380808086335af16104c3610ac7565b6106e48260075461095f565b600755519081527feaff4b37086828766ad3268786972c0cd24259d4c87a80f9d3963a3c3d999b0d60203392a280f35b6020606492519162461bcd60e51b835282015260166024820152754e6f2062616c616e636520746f20776974686472617760501b6044820152fd5b919050346103ff5760203660031901126103ff578060ff9160e09484358152806020522080549360018060a01b03600183015416926002830154906005600385015493850154940154948151978852602088015286015260608501526080840152818116151560a084015260081c16151560c0820152f35b90929150346108b35760203660031901126108b3578360e09460c0836107ed869561090b565b82815282602082015282858201528260608201528260808201528260a082015201528335815280602052208151906108248261090b565b80549384835260018060a01b0393846001840154169460208501958652600284015490828601918252600560038601549460608801958652860154956080880196875201549660ff60c060a0890198828b1615158a52019860081c1615158852835198895251166020880152519086015251606085015251608084015251151560a083015251151560c0820152f35b8380fd5b600435906001600160a01b03821682036108cd57565b600080fd5b156108d957565b60405162461bcd60e51b815260206004820152600a60248201526927b7363c9030b236b4b760b11b6044820152606490fd5b60e0810190811067ffffffffffffffff82111761092757604052565b634e487b7160e01b600052604160045260246000fd5b90601f8019910116810190811067ffffffffffffffff82111761092757604052565b9190820180921161096c57565b634e487b7160e01b600052601160045260246000fd5b9190820391821161096c57565b519069ffffffffffffffffffff821682036108cd57565b600554604051633fabe5a360e21b8152919060a090839060049082906001600160a01b03165afa918215610abb57600092610a6d575b506000821315610a3357670de0b6b3a76400009081810291818304149015171561096c5760648202918083046064149015171561096c578115610a1d570490565b634e487b7160e01b600052601260045260246000fd5b60405162461bcd60e51b8152602060048201526012602482015271496e76616c6964207072696365206461746160701b6044820152606490fd5b909160a0823d8211610ab3575b81610a8760a0938361093d565b810103126101965750610a998161098f565b50610aab60806020830151920161098f565b5090386109dc565b3d9150610a7a565b6040513d6000823e3d90fd5b3d15610b02573d9067ffffffffffffffff82116109275760405191610af6601f8201601f19166020018461093d565b82523d6000602084013e565b606090565b15610b0e57565b60405162461bcd60e51b815260206004820152600f60248201526e151c985b9cd9995c8819985a5b1959608a1b6044820152606490fd5b610b513460085461095f565b6008556040513481527f543ba50a5eec5e6178218e364b1d0f396157b3c8fa278522c2cb7fd99407d47460203392a256fea2646970667358221220888ba8a6dd0b865a7a92ae5a69bf327d922cbb27a73bc880d55b0528a44f426c64736f6c63430008130033","opcodes":"PUSH1 0x80 CALLVALUE PUSH2 0x9B JUMPI PUSH1 0x1F PUSH2 0xC83 CODESIZE DUP2 SWAP1 SUB SWAP2 DUP3 ADD PUSH1 0x1F NOT AND DUP4 ADD SWAP2 PUSH1 0x1 PUSH1 0x1 PUSH1 0x40 SHL SUB DUP4 GT DUP5 DUP5 LT OR PUSH2 0xA0 JUMPI DUP1 DUP5 SWAP3 PUSH1 0x40 SWAP5 DUP6 MSTORE DUP4 CODECOPY DUP2 ADD SUB SLT PUSH2 0x9B JUMPI PUSH2 0x52 PUSH1 0x20 PUSH2 0x4B DUP4 PUSH2 0xB6 JUMP JUMPDEST SWAP3 ADD PUSH2 0xB6 JUMP JUMPDEST PUSH1 0x1 DUP1 PUSH1 0xA0 SHL SUB SWAP1 DUP2 PUSH1 0x1 DUP1 PUSH1 0xA0 SHL SUB NOT SWAP4 AND DUP4 PUSH1 0x2 SLOAD AND OR PUSH1 0x2 SSTORE AND DUP2 PUSH1 0x5 SLOAD AND OR PUSH1 0x5 SSTORE CALLER DUP2 PUSH1 0x3 SLOAD AND OR PUSH1 0x3 SSTORE CALLER SWAP1 PUSH1 0x4 SLOAD AND OR PUSH1 0x4 SSTORE PUSH1 0x40 MLOAD PUSH2 0xBB8 SWAP1 DUP2 PUSH2 0xCB DUP3 CODECOPY RETURN JUMPDEST PUSH1 0x0 DUP1 REVERT JUMPDEST PUSH4 0x4E487B71 PUSH1 0xE0 SHL PUSH1 0x0 MSTORE PUSH1 0x41 PUSH1 0x4 MSTORE PUSH1 0x24 PUSH1 0x0 REVERT JUMPDEST MLOAD SWAP1 PUSH1 0x1 PUSH1 0x1 PUSH1 0xA0 SHL SUB DUP3 AND DUP3 SUB PUSH2 0x9B JUMPI JUMP INVALID PUSH1 0x80 PUSH1 0x40 DUP2 DUP2 MSTORE PUSH1 0x4 SWAP2 DUP3 CALLDATASIZE LT ISZERO PUSH2 0x2A JUMPI JUMPDEST POP POP POP CALLDATASIZE ISZERO PUSH2 0x20 JUMPI PUSH1 0x0 DUP1 REVERT JUMPDEST PUSH2 0x28 PUSH2 0xB45 JUMP JUMPDEST STOP JUMPDEST PUSH1 0x0 SWAP3 DUP4 CALLDATALOAD PUSH1 0xE0 SHR SWAP2 DUP3 PUSH4 0x1FAA0414 EQ PUSH2 0x7C7 JUMPI POP DUP2 PUSH4 0x27E235E3 EQ PUSH2 0x61B JUMPI DUP2 PUSH4 0x29652E86 EQ PUSH2 0x74F JUMPI DUP2 PUSH4 0x3CCFD60B EQ PUSH2 0x691 JUMPI DUP2 PUSH4 0x4089B170 EQ PUSH2 0x672 JUMPI DUP2 PUSH4 0x46FCFF4C EQ PUSH2 0x653 JUMPI DUP2 PUSH4 0x47734892 EQ PUSH2 0x61B JUMPI DUP2 PUSH4 0x4B319713 EQ PUSH2 0x5FC JUMPI DUP2 PUSH4 0x536A7E4F EQ PUSH2 0x5D3 JUMPI DUP2 PUSH4 0x61D027B3 EQ PUSH2 0x5AB JUMPI DUP2 PUSH4 0x6F9FB98A EQ PUSH2 0x590 JUMPI DUP2 PUSH4 0x724E78DA EQ PUSH2 0x540 JUMPI DUP2 PUSH4 0x741BEF1A EQ PUSH2 0x517 JUMPI DUP2 PUSH4 0xABAE70C5 EQ PUSH2 0x42A JUMPI DUP2 PUSH4 0xC0348B07 EQ PUSH2 0x403 JUMPI DUP2 PUSH4 0xCA4C3346 EQ PUSH2 0x199 JUMPI DUP2 PUSH4 0xD0E30DB0 EQ PUSH2 0x17F JUMPI DUP2 PUSH4 0xF0F44260 EQ PUSH2 0x136 JUMPI POP PUSH4 0xF851A440 EQ PUSH2 0x10B JUMPI DUP1 PUSH2 0x12 JUMP JUMPDEST CALLVALUE PUSH2 0x132 JUMPI DUP2 PUSH1 0x3 NOT CALLDATASIZE ADD SLT PUSH2 0x132 JUMPI PUSH1 0x3 SLOAD SWAP1 MLOAD PUSH1 0x1 PUSH1 0x1 PUSH1 0xA0 SHL SUB SWAP1 SWAP2 AND DUP2 MSTORE PUSH1 0x20 SWAP1 RETURN JUMPDEST POP DUP1 REVERT JUMPDEST DUP4 SWAP1 CALLVALUE PUSH2 0x132 JUMPI PUSH1 0x20 CALLDATASIZE PUSH1 0x3 NOT ADD SLT PUSH2 0x132 JUMPI PUSH2 0x151 PUSH2 0x8B7 JUMP JUMPDEST PUSH1 0x3 SLOAD PUSH1 0x1 PUSH1 0x1 PUSH1 0xA0 SHL SUB SWAP2 SWAP1 PUSH2 0x16B SWAP1 DUP4 AND CALLER EQ PUSH2 0x8D2 JUMP JUMPDEST DUP3 SLOAD PUSH1 0x1 PUSH1 0x1 PUSH1 0xA0 SHL SUB NOT AND SWAP2 AND OR SWAP1 SSTORE DUP1 RETURN JUMPDEST DUP4 DUP1 PUSH1 0x3 NOT CALLDATASIZE ADD SLT PUSH2 0x196 JUMPI PUSH2 0x193 PUSH2 0xB45 JUMP JUMPDEST DUP1 RETURN JUMPDEST DUP1 REVERT JUMPDEST SWAP2 SWAP1 POP CALLVALUE PUSH2 0x3FF JUMPI PUSH1 0x60 CALLDATASIZE PUSH1 0x3 NOT ADD SLT PUSH2 0x3FF JUMPI PUSH1 0x24 CALLDATALOAD PUSH1 0x1 PUSH1 0x1 PUSH1 0xA0 SHL SUB DUP2 DUP2 AND SWAP4 DUP1 CALLDATALOAD SWAP4 SWAP3 DUP6 SWAP1 SUB PUSH2 0x3FB JUMPI PUSH1 0x44 CALLDATALOAD SWAP2 DUP1 PUSH1 0x2 SLOAD AND CALLER SUB PUSH2 0x3C0 JUMPI DUP5 DUP8 MSTORE PUSH1 0x20 SWAP1 DUP8 DUP3 MSTORE DUP5 DUP9 KECCAK256 SLOAD PUSH2 0x37D JUMPI DUP4 ISZERO PUSH2 0x33A JUMPI PUSH2 0x1F6 DUP5 PUSH2 0x9A6 JUMP JUMPDEST SWAP3 DUP4 PUSH1 0x8 SLOAD LT PUSH2 0x302 JUMPI DUP7 PUSH1 0x5 DUP8 SWAP7 SWAP6 SWAP5 SWAP4 DUP12 SWAP4 PUSH32 0xB4AEB9FB59644D1C26001B986295CDE5BBFAE34BE7C5240FBCCF4C37308E20FE SWAP10 MLOAD SWAP2 PUSH2 0x237 DUP4 PUSH2 0x90B JUMP JUMPDEST DUP5 DUP4 MSTORE DUP7 DUP4 ADD DUP14 DUP2 MSTORE DUP11 DUP5 ADD DUP11 DUP2 MSTORE PUSH1 0x60 DUP6 ADD SWAP2 DUP11 DUP4 MSTORE PUSH1 0x80 DUP7 ADD SWAP4 TIMESTAMP DUP6 MSTORE DUP14 PUSH1 0xA0 DUP9 ADD SWAP11 PUSH1 0x1 DUP13 MSTORE PUSH1 0xC0 DUP10 ADD SWAP11 DUP2 DUP13 MSTORE DUP2 MSTORE DUP1 DUP14 MSTORE KECCAK256 SWAP7 MLOAD DUP8 SSTORE PUSH1 0x1 DUP8 ADD SWAP2 MLOAD AND PUSH12 0xFFFFFFFFFFFFFFFFFFFFFFFF PUSH1 0xA0 SHL DUP3 SLOAD AND OR SWAP1 SSTORE MLOAD PUSH1 0x2 DUP6 ADD SSTORE MLOAD PUSH1 0x3 DUP5 ADD SSTORE MLOAD SWAP1 DUP3 ADD SSTORE ADD SWAP2 MLOAD ISZERO ISZERO SWAP1 PUSH1 0xFF PUSH2 0xFF00 DUP5 SLOAD SWAP3 MLOAD ISZERO ISZERO PUSH1 0x8 SHL AND SWAP3 AND SWAP1 PUSH2 0xFFFF NOT AND OR OR SWAP1 SSTORE DUP7 DUP9 MSTORE PUSH1 0x1 DUP2 MSTORE DUP4 DUP9 KECCAK256 PUSH2 0x2D6 DUP4 DUP3 SLOAD PUSH2 0x95F JUMP JUMPDEST SWAP1 SSTORE PUSH2 0x2E4 DUP3 PUSH1 0x8 SLOAD PUSH2 0x982 JUMP JUMPDEST PUSH1 0x8 SSTORE PUSH2 0x2F3 DUP3 PUSH1 0x6 SLOAD PUSH2 0x95F JUMP JUMPDEST PUSH1 0x6 SSTORE DUP4 MLOAD SWAP3 DUP4 MSTORE DUP3 ADD MSTORE LOG3 DUP1 RETURN JUMPDEST DUP6 MLOAD PUSH3 0x461BCD PUSH1 0xE5 SHL DUP2 MSTORE SWAP1 DUP2 ADD DUP4 SWAP1 MSTORE PUSH1 0x12 PUSH1 0x24 DUP3 ADD MSTORE PUSH18 0x496E73756666696369656E742066756E6473 PUSH1 0x70 SHL PUSH1 0x44 DUP3 ADD MSTORE PUSH1 0x64 SWAP1 REVERT JUMPDEST DUP5 MLOAD PUSH3 0x461BCD PUSH1 0xE5 SHL DUP2 MSTORE DUP1 DUP5 ADD DUP4 SWAP1 MSTORE PUSH1 0x17 PUSH1 0x24 DUP3 ADD MSTORE PUSH32 0x416D6F756E74206D75737420626520706F736974697665000000000000000000 PUSH1 0x44 DUP3 ADD MSTORE PUSH1 0x64 SWAP1 REVERT JUMPDEST DUP5 MLOAD PUSH3 0x461BCD PUSH1 0xE5 SHL DUP2 MSTORE DUP1 DUP5 ADD DUP4 SWAP1 MSTORE PUSH1 0x18 PUSH1 0x24 DUP3 ADD MSTORE PUSH32 0x5061796F757420616C72656164792070726F6365737365640000000000000000 PUSH1 0x44 DUP3 ADD MSTORE PUSH1 0x64 SWAP1 REVERT JUMPDEST DUP4 MLOAD PUSH3 0x461BCD PUSH1 0xE5 SHL DUP2 MSTORE PUSH1 0x20 DUP2 DUP5 ADD MSTORE PUSH1 0x15 PUSH1 0x24 DUP3 ADD MSTORE PUSH21 0x27B7363C9031B630B4B6B990383937B1B2B9B9B7B9 PUSH1 0x59 SHL PUSH1 0x44 DUP3 ADD MSTORE PUSH1 0x64 SWAP1 REVERT JUMPDEST DUP6 DUP1 REVERT JUMPDEST DUP3 DUP1 REVERT JUMPDEST DUP3 DUP5 CALLVALUE PUSH2 0x196 JUMPI PUSH1 0x20 CALLDATASIZE PUSH1 0x3 NOT ADD SLT PUSH2 0x196 JUMPI POP PUSH2 0x423 PUSH1 0x20 SWAP3 CALLDATALOAD PUSH2 0x9A6 JUMP JUMPDEST SWAP1 MLOAD SWAP1 DUP2 MSTORE RETURN JUMPDEST SWAP1 POP CALLVALUE PUSH2 0x3FF JUMPI PUSH1 0x20 CALLDATASIZE PUSH1 0x3 NOT ADD SLT PUSH2 0x3FF JUMPI PUSH1 0x3 SLOAD DUP2 CALLDATALOAD SWAP2 PUSH1 0x1 PUSH1 0x1 PUSH1 0xA0 SHL SUB SWAP2 PUSH2 0x459 SWAP1 DUP4 AND CALLER EQ PUSH2 0x8D2 JUMP JUMPDEST PUSH2 0x472 PUSH2 0x469 SELFBALANCE PUSH1 0x6 SLOAD SWAP1 PUSH2 0x982 JUMP JUMPDEST PUSH1 0x7 SLOAD SWAP1 PUSH2 0x95F JUMP JUMPDEST DUP4 GT PUSH2 0x4D4 JUMPI SWAP2 PUSH1 0x20 SWAP2 PUSH32 0xEAFF4B37086828766AD3268786972C0CD24259D4C87A80F9D3963A3C3D999B0D SWAP4 PUSH2 0x4AA DUP4 PUSH1 0x8 SLOAD PUSH2 0x982 JUMP JUMPDEST PUSH1 0x8 SSTORE PUSH2 0x4C9 DUP8 DUP1 DUP1 DUP1 DUP8 DUP8 DUP8 SLOAD AND GAS CALL PUSH2 0x4C3 PUSH2 0xAC7 JUMP JUMPDEST POP PUSH2 0xB07 JUMP JUMPDEST SLOAD AND SWAP4 MLOAD SWAP1 DUP2 MSTORE LOG2 DUP1 RETURN JUMPDEST PUSH1 0x64 SWAP1 PUSH1 0x20 DUP6 MLOAD SWAP2 PUSH3 0x461BCD PUSH1 0xE5 SHL DUP4 MSTORE DUP3 ADD MSTORE PUSH1 0x17 PUSH1 0x24 DUP3 ADD MSTORE PUSH32 0x4578636565647320617661696C61626C652066756E6473000000000000000000 PUSH1 0x44 DUP3 ADD MSTORE REVERT JUMPDEST POP POP CALLVALUE PUSH2 0x132 JUMPI DUP2 PUSH1 0x3 NOT CALLDATASIZE ADD SLT PUSH2 0x132 JUMPI PUSH1 0x5 SLOAD SWAP1 MLOAD PUSH1 0x1 PUSH1 0x1 PUSH1 0xA0 SHL SUB SWAP1 SWAP2 AND DUP2 MSTORE PUSH1 0x20 SWAP1 RETURN JUMPDEST DUP4 CALLVALUE PUSH2 0x196 JUMPI PUSH1 0x20 CALLDATASIZE PUSH1 0x3 NOT ADD SLT PUSH2 0x196 JUMPI PUSH2 0x55A PUSH2 0x8B7 JUMP JUMPDEST PUSH1 0x3 SLOAD PUSH1 0x1 PUSH1 0x1 PUSH1 0xA0 SHL SUB SWAP2 SWAP1 PUSH2 0x574 SWAP1 DUP4 AND CALLER EQ PUSH2 0x8D2 JUMP JUMPDEST AND PUSH12 0xFFFFFFFFFFFFFFFFFFFFFFFF PUSH1 0xA0 SHL PUSH1 0x5 SLOAD AND OR PUSH1 0x5 SSTORE DUP1 RETURN JUMPDEST POP POP CALLVALUE PUSH2 0x132 JUMPI DUP2 PUSH1 0x3 NOT CALLDATASIZE ADD SLT PUSH2 0x132 JUMPI MLOAD SELFBALANCE DUP2 MSTORE PUSH1 0x20 SWAP1 RETURN JUMPDEST SWAP1 POP CALLVALUE PUSH2 0x3FF JUMPI DUP3 PUSH1 0x3 NOT CALLDATASIZE ADD SLT PUSH2 0x3FF JUMPI SLOAD SWAP1 MLOAD PUSH1 0x1 PUSH1 0x1 PUSH1 0xA0 SHL SUB SWAP1 SWAP2 AND DUP2 MSTORE PUSH1 0x20 SWAP2 POP RETURN JUMPDEST POP POP CALLVALUE PUSH2 0x132 JUMPI DUP2 PUSH1 0x3 NOT CALLDATASIZE ADD SLT PUSH2 0x132 JUMPI PUSH1 0x2 SLOAD SWAP1 MLOAD PUSH1 0x1 PUSH1 0x1 PUSH1 0xA0 SHL SUB SWAP1 SWAP2 AND DUP2 MSTORE PUSH1 0x20 SWAP1 RETURN JUMPDEST POP POP CALLVALUE PUSH2 0x132 JUMPI DUP2 PUSH1 0x3 NOT CALLDATASIZE ADD SLT PUSH2 0x132 JUMPI PUSH1 0x20 SWAP1 PUSH1 0x7 SLOAD SWAP1 MLOAD SWAP1 DUP2 MSTORE RETURN JUMPDEST POP POP CALLVALUE PUSH2 0x132 JUMPI PUSH1 0x20 CALLDATASIZE PUSH1 0x3 NOT ADD SLT PUSH2 0x132 JUMPI PUSH1 0x20 SWAP2 DUP2 SWAP1 PUSH1 0x1 PUSH1 0x1 PUSH1 0xA0 SHL SUB PUSH2 0x643 PUSH2 0x8B7 JUMP JUMPDEST AND DUP2 MSTORE PUSH1 0x1 DUP5 MSTORE KECCAK256 SLOAD SWAP1 MLOAD SWAP1 DUP2 MSTORE RETURN JUMPDEST POP POP CALLVALUE PUSH2 0x132 JUMPI DUP2 PUSH1 0x3 NOT CALLDATASIZE ADD SLT PUSH2 0x132 JUMPI PUSH1 0x20 SWAP1 PUSH1 0x8 SLOAD SWAP1 MLOAD SWAP1 DUP2 MSTORE RETURN JUMPDEST POP POP CALLVALUE PUSH2 0x132 JUMPI DUP2 PUSH1 0x3 NOT CALLDATASIZE ADD SLT PUSH2 0x132 JUMPI PUSH1 0x20 SWAP1 PUSH1 0x6 SLOAD SWAP1 MLOAD SWAP1 DUP2 MSTORE RETURN JUMPDEST SWAP2 SWAP1 POP CALLVALUE PUSH2 0x3FF JUMPI DUP3 PUSH1 0x3 NOT CALLDATASIZE ADD SLT PUSH2 0x3FF JUMPI CALLER DUP4 MSTORE PUSH1 0x1 PUSH1 0x20 MSTORE DUP1 DUP4 KECCAK256 SLOAD SWAP2 DUP3 ISZERO PUSH2 0x714 JUMPI POP CALLER DUP4 MSTORE PUSH1 0x1 PUSH1 0x20 MSTORE DUP3 DUP2 DUP2 KECCAK256 SSTORE PUSH2 0x6D8 DUP4 DUP1 DUP1 DUP1 DUP7 CALLER GAS CALL PUSH2 0x4C3 PUSH2 0xAC7 JUMP JUMPDEST PUSH2 0x6E4 DUP3 PUSH1 0x7 SLOAD PUSH2 0x95F JUMP JUMPDEST PUSH1 0x7 SSTORE MLOAD SWAP1 DUP2 MSTORE PUSH32 0xEAFF4B37086828766AD3268786972C0CD24259D4C87A80F9D3963A3C3D999B0D PUSH1 0x20 CALLER SWAP3 LOG2 DUP1 RETURN JUMPDEST PUSH1 0x20 PUSH1 0x64 SWAP3 MLOAD SWAP2 PUSH3 0x461BCD PUSH1 0xE5 SHL DUP4 MSTORE DUP3 ADD MSTORE PUSH1 0x16 PUSH1 0x24 DUP3 ADD MSTORE PUSH22 0x4E6F2062616C616E636520746F207769746864726177 PUSH1 0x50 SHL PUSH1 0x44 DUP3 ADD MSTORE REVERT JUMPDEST SWAP2 SWAP1 POP CALLVALUE PUSH2 0x3FF JUMPI PUSH1 0x20 CALLDATASIZE PUSH1 0x3 NOT ADD SLT PUSH2 0x3FF JUMPI DUP1 PUSH1 0xFF SWAP2 PUSH1 0xE0 SWAP5 DUP5 CALLDATALOAD DUP2 MSTORE DUP1 PUSH1 0x20 MSTORE KECCAK256 DUP1 SLOAD SWAP4 PUSH1 0x1 DUP1 PUSH1 0xA0 SHL SUB PUSH1 0x1 DUP4 ADD SLOAD AND SWAP3 PUSH1 0x2 DUP4 ADD SLOAD SWAP1 PUSH1 0x5 PUSH1 0x3 DUP6 ADD SLOAD SWAP4 DUP6 ADD SLOAD SWAP5 ADD SLOAD SWAP5 DUP2 MLOAD SWAP8 DUP9 MSTORE PUSH1 0x20 DUP9 ADD MSTORE DUP7 ADD MSTORE PUSH1 0x60 DUP6 ADD MSTORE PUSH1 0x80 DUP5 ADD MSTORE DUP2 DUP2 AND ISZERO ISZERO PUSH1 0xA0 DUP5 ADD MSTORE PUSH1 0x8 SHR AND ISZERO ISZERO PUSH1 0xC0 DUP3 ADD MSTORE RETURN JUMPDEST SWAP1 SWAP3 SWAP2 POP CALLVALUE PUSH2 0x8B3 JUMPI PUSH1 0x20 CALLDATASIZE PUSH1 0x3 NOT ADD SLT PUSH2 0x8B3 JUMPI DUP4 PUSH1 0xE0 SWAP5 PUSH1 0xC0 DUP4 PUSH2 0x7ED DUP7 SWAP6 PUSH2 0x90B JUMP JUMPDEST DUP3 DUP2 MSTORE DUP3 PUSH1 0x20 DUP3 ADD MSTORE DUP3 DUP6 DUP3 ADD MSTORE DUP3 PUSH1 0x60 DUP3 ADD MSTORE DUP3 PUSH1 0x80 DUP3 ADD MSTORE DUP3 PUSH1 0xA0 DUP3 ADD MSTORE ADD MSTORE DUP4 CALLDATALOAD DUP2 MSTORE DUP1 PUSH1 0x20 MSTORE KECCAK256 DUP2 MLOAD SWAP1 PUSH2 0x824 DUP3 PUSH2 0x90B JUMP JUMPDEST DUP1 SLOAD SWAP4 DUP5 DUP4 MSTORE PUSH1 0x1 DUP1 PUSH1 0xA0 SHL SUB SWAP4 DUP5 PUSH1 0x1 DUP5 ADD SLOAD AND SWAP5 PUSH1 0x20 DUP6 ADD SWAP6 DUP7 MSTORE PUSH1 0x2 DUP5 ADD SLOAD SWAP1 DUP3 DUP7 ADD SWAP2 DUP3 MSTORE PUSH1 0x5 PUSH1 0x3 DUP7 ADD SLOAD SWAP5 PUSH1 0x60 DUP9 ADD SWAP6 DUP7 MSTORE DUP7 ADD SLOAD SWAP6 PUSH1 0x80 DUP9 ADD SWAP7 DUP8 MSTORE ADD SLOAD SWAP7 PUSH1 0xFF PUSH1 0xC0 PUSH1 0xA0 DUP10 ADD SWAP9 DUP3 DUP12 AND ISZERO ISZERO DUP11 MSTORE ADD SWAP9 PUSH1 0x8 SHR AND ISZERO ISZERO DUP9 MSTORE DUP4 MLOAD SWAP9 DUP10 MSTORE MLOAD AND PUSH1 0x20 DUP9 ADD MSTORE MLOAD SWAP1 DUP7 ADD MSTORE MLOAD PUSH1 0x60 DUP6 ADD MSTORE MLOAD PUSH1 0x80 DUP5 ADD MSTORE MLOAD ISZERO ISZERO PUSH1 0xA0 DUP4 ADD MSTORE MLOAD ISZERO ISZERO PUSH1 0xC0 DUP3 ADD MSTORE RETURN JUMPDEST DUP4 DUP1 REVERT JUMPDEST PUSH1 0x4 CALLDATALOAD SWAP1 PUSH1 0x1 PUSH1 0x1 PUSH1 0xA0 SHL SUB DUP3 AND DUP3 SUB PUSH2 0x8CD JUMPI JUMP JUMPDEST PUSH1 0x0 DUP1 REVERT JUMPDEST ISZERO PUSH2 0x8D9 JUMPI JUMP JUMPDEST PUSH1 0x40 MLOAD PUSH3 0x461BCD PUSH1 0xE5 SHL DUP2 MSTORE PUSH1 0x20 PUSH1 0x4 DUP3 ADD MSTORE PUSH1 0xA PUSH1 0x24 DUP3 ADD MSTORE PUSH10 0x27B7363C9030B236B4B7 PUSH1 0xB1 SHL PUSH1 0x44 DUP3 ADD MSTORE PUSH1 0x64 SWAP1 REVERT JUMPDEST PUSH1 0xE0 DUP2 ADD SWAP1 DUP2 LT PUSH8 0xFFFFFFFFFFFFFFFF DUP3 GT OR PUSH2 0x927 JUMPI PUSH1 0x40 MSTORE JUMP JUMPDEST PUSH4 0x4E487B71 PUSH1 0xE0 SHL PUSH1 0x0 MSTORE PUSH1 0x41 PUSH1 0x4 MSTORE PUSH1 0x24 PUSH1 0x0 REVERT JUMPDEST SWAP1 PUSH1 0x1F DUP1 NOT SWAP2 ADD AND DUP2 ADD SWAP1 DUP2 LT PUSH8 0xFFFFFFFFFFFFFFFF DUP3 GT OR PUSH2 0x927 JUMPI PUSH1 0x40 MSTORE JUMP JUMPDEST SWAP2 SWAP1 DUP3 ADD DUP1 SWAP3 GT PUSH2 0x96C JUMPI JUMP JUMPDEST PUSH4 0x4E487B71 PUSH1 0xE0 SHL PUSH1 0x0 MSTORE PUSH1 0x11 PUSH1 0x4 MSTORE PUSH1 0x24 PUSH1 0x0 REVERT JUMPDEST SWAP2 SWAP1 DUP3 SUB SWAP2 DUP3 GT PUSH2 0x96C JUMPI JUMP JUMPDEST MLOAD SWAP1 PUSH10 0xFFFFFFFFFFFFFFFFFFFF DUP3 AND DUP3 SUB PUSH2 0x8CD JUMPI JUMP JUMPDEST PUSH1 0x5 SLOAD PUSH1 0x40 MLOAD PUSH4 0x3FABE5A3 PUSH1 0xE2 SHL DUP2 MSTORE SWAP2 SWAP1 PUSH1 0xA0 SWAP1 DUP4 SWAP1 PUSH1 0x4 SWAP1 DUP3 SWAP1 PUSH1 0x1 PUSH1 0x1 PUSH1 0xA0 SHL SUB AND GAS STATICCALL SWAP2 DUP3 ISZERO PUSH2 0xABB JUMPI PUSH1 0x0 SWAP3 PUSH2 0xA6D JUMPI JUMPDEST POP PUSH1 0x0 DUP3 SGT ISZERO PUSH2 0xA33 JUMPI PUSH8 0xDE0B6B3A7640000 SWAP1 DUP2 DUP2 MUL SWAP2 DUP2 DUP4 DIV EQ SWAP1 ISZERO OR ISZERO PUSH2 0x96C JUMPI PUSH1 0x64 DUP3 MUL SWAP2 DUP1 DUP4 DIV PUSH1 0x64 EQ SWAP1 ISZERO OR ISZERO PUSH2 0x96C JUMPI DUP2 ISZERO PUSH2 0xA1D JUMPI DIV SWAP1 JUMP JUMPDEST PUSH4 0x4E487B71 PUSH1 0xE0 SHL PUSH1 0x0 MSTORE PUSH1 0x12 PUSH1 0x4 MSTORE PUSH1 0x24 PUSH1 0x0 REVERT JUMPDEST PUSH1 0x40 MLOAD PUSH3 0x461BCD PUSH1 0xE5 SHL DUP2 MSTORE PUSH1 0x20 PUSH1 0x4 DUP3 ADD MSTORE PUSH1 0x12 PUSH1 0x24 DUP3 ADD MSTORE PUSH18 0x496E76616C69642070726963652064617461 PUSH1 0x70 SHL PUSH1 0x44 DUP3 ADD MSTORE PUSH1 0x64 SWAP1 REVERT JUMPDEST SWAP1 SWAP2 PUSH1 0xA0 DUP3 RETURNDATASIZE DUP3 GT PUSH2 0xAB3 JUMPI JUMPDEST DUP2 PUSH2 0xA87 PUSH1 0xA0 SWAP4 DUP4 PUSH2 0x93D JUMP JUMPDEST DUP2 ADD SUB SLT PUSH2 0x196 JUMPI POP PUSH2 0xA99 DUP2 PUSH2 0x98F JUMP JUMPDEST POP PUSH2 0xAAB PUSH1 0x80 PUSH1 0x20 DUP4 ADD MLOAD SWAP3 ADD PUSH2 0x98F JUMP JUMPDEST POP SWAP1 CODESIZE PUSH2 0x9DC JUMP JUMPDEST RETURNDATASIZE SWAP2 POP PUSH2 0xA7A JUMP JUMPDEST PUSH1 0x40 MLOAD RETURNDATASIZE PUSH1 0x0 DUP3 RETURNDATACOPY RETURNDATASIZE SWAP1 REVERT JUMPDEST RETURNDATASIZE ISZERO PUSH2 0xB02 JUMPI RETURNDATASIZE SWAP1 PUSH8 0xFFFFFFFFFFFFFFFF DUP3 GT PUSH2 0x927 JUMPI PUSH1 0x40 MLOAD SWAP2 PUSH2 0xAF6 PUSH1 0x1F DUP3 ADD PUSH1 0x1F NOT AND PUSH1 0x20 ADD DUP5 PUSH2 0x93D JUMP JUMPDEST DUP3 MSTORE RETURNDATASIZE PUSH1 0x0 PUSH1 0x20 DUP5 ADD RETURNDATACOPY JUMP JUMPDEST PUSH1 0x60 SWAP1 JUMP JUMPDEST ISZERO PUSH2 0xB0E JUMPI JUMP JUMPDEST PUSH1 0x40 MLOAD PUSH3 0x461BCD PUSH1 0xE5 SHL DUP2 MSTORE PUSH1 0x20 PUSH1 0x4 DUP3 ADD MSTORE PUSH1 0xF PUSH1 0x24 DUP3 ADD MSTORE PUSH15 0x151C985B9CD9995C8819985A5B1959 PUSH1 0x8A SHL PUSH1 0x44 DUP3 ADD MSTORE PUSH1 0x64 SWAP1 REVERT JUMPDEST PUSH2 0xB51 CALLVALUE PUSH1 0x8 SLOAD PUSH2 0x95F JUMP JUMPDEST PUSH1 0x8 SSTORE PUSH1 0x40 MLOAD CALLVALUE DUP2 MSTORE PUSH32 0x543BA50A5EEC5E6178218E364B1D0F396157B3C8FA278522C2CB7FD99407D474 PUSH1 0x20 CALLER SWAP3 LOG2 JUMP INVALID LOG2 PUSH5 0x6970667358 0x22 SLT KECCAK256 DUP9 DUP12 0xA8 0xA6 0xDD SIGNEXTEND DUP7 GAS PUSH27 0x92AE5A69BF327D922CBB27A73BC880D55B0528A44F426C64736F6C PUSH4 0x43000813 STOP CALLER "},"methodIdentifiers":{"admin()":"f851a440","availableFunds()":"46fcff4c","balances(address)":"27e235e3","claimsProcessor()":"536a7e4f","convertUSDToAVAX(uint256)":"c0348b07","deposit()":"d0e30db0","getContractBalance()":"6f9fb98a","getPayoutDetails(uint256)":"1faa0414","getUserBalance(address)":"47734892","payouts(uint256)":"29652e86","priceFeed()":"741bef1a","processPayout(uint256,address,uint256)":"ca4c3346","setPriceFeed(address)":"724e78da","setTreasury(address)":"f0f44260","totalPayouts()":"4089b170","totalWithdrawn()":"4b319713","treasury()":"61d027b3","withdraw()":"3ccfd60b","withdrawToTreasury(uint256)":"abae70c5"}}}}}