{
  "_format": "hh-sol-artifact-1",
  "contractName": "PolicyRegistry",
  "sourceName": "contracts/PolicyRegistry.sol",
  "abi": [
    {
      "inputs": [],
      "stateMutability": "nonpayable",
      "type": "constructor"
    },
    {
      "anonymous": false,
      "inputs": [
        {
          "indexed": true,
          "internalType": "uint256",
          "name": "policyId",
          "type": "uint256"
        },
        {
          "indexed": false,
          "internalType": "uint256",
          "name": "newCount",
          "type": "uint256"
        }
      ],
      "name": "ClaimCountUpdated",
      "type": "event"
    },
    {
      "anonymous": false,
      "inputs": [
        {
          "indexed": true,
          "internalType": "uint256",
          "name": "policyId",
          "type": "uint256"
        },
        {
          "indexed": false,
          "internalType": "uint256",
          "name": "amount",
          "type": "uint256"
        }
      ],
      "name": "PayoutRecorded",
      "type": "event"
    },
    {
      "anonymous": false,
      "inputs": [
        {
          "indexed": true,
          "internalType": "uint256",
          "name": "policyId",
          "type": "uint256"
        }
      ],
      "name": "PolicyCancelled",
      "type": "event"
    },
    {
      "anonymous": false,
      "inputs": [
        {
          "indexed": true,
          "internalType": "uint256",
          "name": "policyId",
          "type": "uint256"
        },
        {
          "indexed": true,
          "internalType": "address",
          "name": "policyholder",
          "type": "address"
        }
      ],
      "name": "PolicyCreated",
      "type": "event"
    },
    {
      "anonymous": false,
      "inputs": [
        {
          "indexed": true,
          "internalType": "uint256",
          "name": "policyId",
          "type": "uint256"
        }
      ],
      "name": "PolicyUpdated",
      "type": "event"
    },
    {
      "inputs": [],
      "name": "admin",
      "outputs": [
        {
          "internalType": "address",
          "name": "",
          "type": "address"
        }
      ],
      "stateMutability": "view",
      "type": "function"
    },
    {
      "inputs": [
        {
          "internalType": "uint256",
          "name": "_policyId",
          "type": "uint256"
        }
      ],
      "name": "cancelPolicy",
      "outputs": [],
      "stateMutability": "nonpayable",
      "type": "function"
    },
    {
      "inputs": [],
      "name": "claimsProcessor",
      "outputs": [
        {
          "internalType": "address",
          "name": "",
          "type": "address"
        }
      ],
      "stateMutability": "view",
      "type": "function"
    },
    {
      "inputs": [
        {
          "internalType": "address",
          "name": "_policyholder",
          "type": "address"
        },
        {
          "internalType": "uint256",
          "name": "_premium",
          "type": "uint256"
        },
        {
          "internalType": "uint256",
          "name": "_coverage",
          "type": "uint256"
        },
        {
          "internalType": "uint256",
          "name": "_deductible",
          "type": "uint256"
        },
        {
          "internalType": "string",
          "name": "_policyType",
          "type": "string"
        },
        {
          "internalType": "uint256",
          "name": "_duration",
          "type": "uint256"
        }
      ],
      "name": "createPolicy",
      "outputs": [
        {
          "internalType": "uint256",
          "name": "",
          "type": "uint256"
        }
      ],
      "stateMutability": "nonpayable",
      "type": "function"
    },
    {
      "inputs": [
        {
          "internalType": "uint256",
          "name": "_policyId",
          "type": "uint256"
        }
      ],
      "name": "getPolicy",
      "outputs": [
        {
          "components": [
            {
              "internalType": "uint256",
              "name": "policyId",
              "type": "uint256"
            },
            {
              "internalType": "address",
              "name": "policyholder",
              "type": "address"
            },
            {
              "internalType": "uint256",
              "name": "premium",
              "type": "uint256"
            },
            {
              "internalType": "uint256",
              "name": "coverage",
              "type": "uint256"
            },
            {
              "internalType": "uint256",
              "name": "deductible",
              "type": "uint256"
            },
            {
              "internalType": "string",
              "name": "policyType",
              "type": "string"
            },
            {
              "internalType": "uint256",
              "name": "startDate",
              "type": "uint256"
            },
            {
              "internalType": "uint256",
              "name": "endDate",
              "type": "uint256"
            },
            {
              "internalType": "bool",
              "name": "isActive",
              "type": "bool"
            },
            {
              "internalType": "uint256",
              "name": "claimsCount",
              "type": "uint256"
            },
            {
              "internalType": "uint256",
              "name": "totalPayouts",
              "type": "uint256"
            }
          ],
          "internalType": "struct PolicyRegistry.Policy",
          "name": "",
          "type": "tuple"
        }
      ],
      "stateMutability": "view",
      "type": "function"
    },
    {
      "inputs": [
        {
          "internalType": "address",
          "name": "_user",
          "type": "address"
        }
      ],
      "name": "getUserPolicies",
      "outputs": [
        {
          "internalType": "uint256[]",
          "name": "",
          "type": "uint256[]"
        }
      ],
      "stateMutability": "view",
      "type": "function"
    },
    {
      "inputs": [
        {
          "internalType": "uint256",
          "name": "_policyId",
          "type": "uint256"
        }
      ],
      "name": "incrementClaimCount",
      "outputs": [],
      "stateMutability": "nonpayable",
      "type": "function"
    },
    {
      "inputs": [
        {
          "internalType": "uint256",
          "name": "_policyId",
          "type": "uint256"
        },
        {
          "internalType": "address",
          "name": "_claimant",
          "type": "address"
        }
      ],
      "name": "isPolicyValidForClaims",
      "outputs": [
        {
          "internalType": "bool",
          "name": "",
          "type": "bool"
        }
      ],
      "stateMutability": "view",
      "type": "function"
    },
    {
      "inputs": [],
      "name": "nextPolicyId",
      "outputs": [
        {
          "internalType": "uint256",
          "name": "",
          "type": "uint256"
        }
      ],
      "stateMutability": "view",
      "type": "function"
    },
    {
      "inputs": [
        {
          "internalType": "uint256",
          "name": "",
          "type": "uint256"
        }
      ],
      "name": "policies",
      "outputs": [
        {
          "internalType": "uint256",
          "name": "policyId",
          "type": "uint256"
        },
        {
          "internalType": "address",
          "name": "policyholder",
          "type": "address"
        },
        {
          "internalType": "uint256",
          "name": "premium",
          "type": "uint256"
        },
        {
          "internalType": "uint256",
          "name": "coverage",
          "type": "uint256"
        },
        {
          "internalType": "uint256",
          "name": "deductible",
          "type": "uint256"
        },
        {
          "internalType": "string",
          "name": "policyType",
          "type": "string"
        },
        {
          "internalType": "uint256",
          "name": "startDate",
          "type": "uint256"
        },
        {
          "internalType": "uint256",
          "name": "endDate",
          "type": "uint256"
        },
        {
          "internalType": "bool",
          "name": "isActive",
          "type": "bool"
        },
        {
          "internalType": "uint256",
          "name": "claimsCount",
          "type": "uint256"
        },
        {
          "internalType": "uint256",
          "name": "totalPayouts",
          "type": "uint256"
        }
      ],
      "stateMutability": "view",
      "type": "function"
    },
    {
      "inputs": [
        {
          "internalType": "uint256",
          "name": "_policyId",
          "type": "uint256"
        },
        {
          "internalType": "uint256",
          "name": "_amount",
          "type": "uint256"
        }
      ],
      "name": "recordPayout",
      "outputs": [],
      "stateMutability": "nonpayable",
      "type": "function"
    },
    {
      "inputs": [
        {
          "internalType": "address",
          "name": "_claimsProcessor",
          "type": "address"
        }
      ],
      "name": "setClaimsProcessor",
      "outputs": [],
      "stateMutability": "nonpayable",
      "type": "function"
    },
    {
      "inputs": [
        {
          "internalType": "uint256",
          "name": "_policyId",
          "type": "uint256"
        },
        {
          "internalType": "uint256",
          "name": "_premium",
          "type": "uint256"
        },
        {
          "internalType": "uint256",
          "name": "_coverage",
          "type": "uint256"
        },
        {
          "internalType": "uint256",
          "name": "_deductible",
          "type": "uint256"
        },
        {
          "internalType": "uint256",
          "name": "_duration",
          "type": "uint256"
        }
      ],
      "name": "updatePolicy",
      "outputs": [],
      "stateMutability": "nonpayable",
      "type": "function"
    },
    {
      "inputs": [
        {
          "internalType": "address",
          "name": "",
          "type": "address"
        },
        {
          "internalType": "uint256",
          "name": "",
          "type": "uint256"
        }
      ],
      "name": "userPolicies",
      "outputs": [
        {
          "internalType": "uint256",
          "name": "",
          "type": "uint256"
        }
      ],
      "stateMutability": "view",
      "type": "function"
    }
  ],
  "bytecode": "0x6080806040523461002d576001600255600380546001600160a01b03191633179055610f0490816100338239f35b600080fdfe608080604052600436101561001357600080fd5b60003560e01c90816319ac461414610b715750806326d13b0014610aa35780632b07fce31461090f5780633a8e94f5146108be5780633d36adc514610866578063536a7e4f1461083d57806376d0629e146104c35780638d3629c0146103f3578063943f31a614610351578063b20e8bcc14610270578063cad0b8db14610252578063d3e8948314610190578063f8112568146100e75763f851a440146100b957600080fd5b346100e25760003660031901126100e2576003546040516001600160a01b039091168152602090f35b600080fd5b346100e25760403660031901126100e2576004357f899732479a7415c852b353630c0c7aa1a6f275d4e17e3196363d995b3e1da72f602060243561013660018060a01b03600454163314610e8a565b836000526000825261014e8460406000205414610e03565b836000526000825261016a60ff60086040600020015416610e47565b8360005260008252600a604060002001610185828254610df6565b9055604051908152a2005b346100e25760203660031901126100e25760043560005260006020526040600020805460018060a01b036001830154169160028101546003820154916004810154926101de60058301610d17565b9361022f60068401549560078501549260ff60088701541694600a6009880154970154976040519b8c9b8c5260208c015260408b015260608a015260808901526101608060a08a0152880190610c30565b9460c087015260e086015215156101008501526101208401526101408301520390f35b346100e25760003660031901126100e2576020600254604051908152f35b346100e25760203660031901126100e25760043561029960018060a01b03600354163314610dbd565b8060005260006020526102b28160406000205414610e03565b80600052600060205260ff600860406000200154161561030c57806000526000602052600860406000200160ff1981541690557fbb1ae509b65d9486a686f3f1b0435353031b5607109dc80aa4d063887e10f3e8600080a2005b60405162461bcd60e51b815260206004820152601a60248201527f506f6c69637920697320616c726561647920696e6163746976650000000000006044820152606490fd5b346100e25760403660031901126100e2576024356001600160a01b0381811691600435908390036100e257602092816000526000845260406000209182541492836103e3575b5050816103d4575b816103c5575b816103b6575b506040519015158152f35b600791500154421115826103ab565b600681015442101591506103a5565b600881015460ff16915061039f565b6001830154161491508380610397565b346100e2576020806003193601126100e2576004359061041e60018060a01b03600454163314610e8a565b81600052600081526104368260406000205414610e03565b816000526000815261045260ff60086040600020015416610e47565b81600052600081526009604060002001908154600181018091116104ad577fde9d9328490fbf56bf6fb489ad69f4cc297e9642da86fbd4f5c823494a4e01f692558260005260008152600960406000200154604051908152a2005b634e487b7160e01b600052601160045260246000fd5b346100e25760c03660031901126100e2576104dc610c1a565b6084359067ffffffffffffffff82116100e257366023830112156100e257816004013567ffffffffffffffff811161075f5760405192610526601f8301601f191660200185610cbb565b81845236602483830101116100e25781600092602460209301838701378401015261055c60018060a01b03600354163314610dbd565b6002549160001983146104ad576001830160025561057c60a43542610df6565b6040519161058983610c9e565b84835260018060a01b038416602084015260243560408401526044356060840152606435608084015260a08301524260c083015260e0820152600161010082015260006101208201526000610140820152826000526000602052604060002090805182556001820160018060a01b036020830151166bffffffffffffffffffffffff60a01b82541617905560408101516002830155606081015160038301556080810151600483015560a081015180519067ffffffffffffffff821161075f576106566005850154610cdd565b601f81116107f6575b50602090601f8311600114610780579180600a949261014094600092610775575b50508160011b916000199060031b1c19161760058501555b60c0810151600685015560e0810151600785015560088401610100820151151560ff801983541691161790556101208101516009850155015191015560018060a01b03811660005260016020526040600020918254926801000000000000000084101561075f5783610711916001602096018155610c70565b815460001960039290921b91821b19169083901b179055604051916001600160a01b0316817f692975d6d42aec50e0f6ff672acde3bf011e71355ed86dd49de0a1f533950cba600080a38152f35b634e487b7160e01b600052604160045260246000fd5b015190508880610680565b906005850160005260206000209160005b601f19851681106107de575092600a94926001926101409583601f198116106107c5575b505050811b016005850155610698565b015160001960f88460031b161c191690558880806107b5565b91926020600181928685015181550194019201610791565b600585016000526020600020601f840160051c810160208510610836575b601f830160051c8201811061082a57505061065f565b60008155600101610814565b5080610814565b346100e25760003660031901126100e2576004546040516001600160a01b039091168152602090f35b346100e25760403660031901126100e25761087f610c1a565b6001600160a01b03166000908152600160205260409020805460243591908210156100e2576020916108b091610c70565b90546040519160031b1c8152f35b346100e25760203660031901126100e2576108d7610c1a565b6003546001600160a01b0391906108f19083163314610dbd565b166bffffffffffffffffffffffff60a01b6004541617600455600080f35b346100e25760203660031901126100e257600061014060405161093181610c9e565b828152826020820152826040820152826060820152826080820152606060a08201528260c08201528260e08201528261010082015282610120820152015260043560005260006020526040600020600a6040519161098e83610c9e565b8054835260018101546001600160a01b031660208401526002810154604084015260038101546060840152600481015460808401526109cf60058201610d17565b60a0840152600681015460c0840152600781015460e084015260ff6008820154161515610100840152600981015461012084015201546101408201526040518091602082528051602083015260018060a01b0360208201511660408301526040810151606083015260608101516080830152608081015160a083015260a0810151610140610a6b610160928360c0870152610180860190610c30565b9260c081015160e086015260e08101516101008601526101008101511515610120860152610120810151828601520151908301520390f35b346100e25760a03660031901126100e257600435608435610acf60018060a01b03600354163314610dbd565b816000526000602052610ae88260406000205414610e03565b816000526000602052610b0560ff60086040600020015416610e47565b816000526000602052604060002060243560028201556044356003820155606435600482015581610b59575b827f912ce63c438aca9d2f50d1d12de5b42efbcc84ce223b08122e8c2e3c000ca1f8600080a2005b6007610b689101918254610df6565b90558180610b31565b346100e2576020806003193601126100e257906001600160a01b03610b94610c1a565b1660005260018083526040600020928354808452818401908195600052826000209060005b818110610c075750505083610bcf910384610cbb565b60405192818401908285525180915260408401949160005b828110610bf45785870386f35b8351875295810195928101928401610be7565b8254845292840192918501918501610bb9565b600435906001600160a01b03821682036100e257565b919082519283825260005b848110610c5c575050826000602080949584010152601f8019910116010190565b602081830181015184830182015201610c3b565b8054821015610c885760005260206000200190600090565b634e487b7160e01b600052603260045260246000fd5b610160810190811067ffffffffffffffff82111761075f57604052565b90601f8019910116810190811067ffffffffffffffff82111761075f57604052565b90600182811c92168015610d0d575b6020831014610cf757565b634e487b7160e01b600052602260045260246000fd5b91607f1691610cec565b9060405191826000825492610d2b84610cdd565b908184526001948581169081600014610d9a5750600114610d57575b5050610d5592500383610cbb565b565b9093915060005260209081600020936000915b818310610d82575050610d5593508201013880610d47565b85548884018501529485019487945091830191610d6a565b915050610d5594506020925060ff191682840152151560051b8201013880610d47565b15610dc457565b60405162461bcd60e51b815260206004820152600a60248201526927b7363c9030b236b4b760b11b6044820152606490fd5b919082018092116104ad57565b15610e0a57565b60405162461bcd60e51b8152602060048201526015602482015274141bdb1a58de48191bd95cc81b9bdd08195e1a5cdd605a1b6044820152606490fd5b15610e4e57565b60405162461bcd60e51b8152602060048201526014602482015273506f6c696379206973206e6f742061637469766560601b6044820152606490fd5b15610e9157565b60405162461bcd60e51b815260206004820152601560248201527427b7363c9031b630b4b6b990383937b1b2b9b9b7b960591b6044820152606490fdfea2646970667358221220561acb700171db0fb354b395f3a0c6cc754e9ed07e83f5546d55ecfcdfa8317464736f6c63430008130033",
  "linkReferences": {},
  "deployedLinkReferences": {}
}