{
  "_format": "hh-sol-artifact-1",
  "contractName": "ClaimsProcessor",
  "sourceName": "contracts/ClaimsProcessor.sol",
  "abi": [
    {
      "inputs": [
        {
          "internalType": "address",
          "name": "_vrfCoordinator",
          "type": "address"
        },
        {
          "internalType": "bytes32",
          "name": "_keyHash",
          "type": "bytes32"
        },
        {
          "internalType": "uint64",
          "name": "_subscriptionId",
          "type": "uint64"
        },
        {
          "internalType": "address",
          "name": "_policyRegistry",
          "type": "address"
        }
      ],
      "stateMutability": "nonpayable",
      "type": "constructor"
    },
    {
      "inputs": [
        {
          "internalType": "address",
          "name": "have",
          "type": "address"
        },
        {
          "internalType": "address",
          "name": "want",
          "type": "address"
        }
      ],
      "name": "OnlyCoordinatorCanFulfill",
      "type": "error"
    },
    {
      "anonymous": false,
      "inputs": [
        {
          "indexed": true,
          "internalType": "uint256",
          "name": "claimId",
          "type": "uint256"
        }
      ],
      "name": "AIAnalysisReceived",
      "type": "event"
    },
    {
      "anonymous": false,
      "inputs": [
        {
          "indexed": true,
          "internalType": "uint256",
          "name": "claimId",
          "type": "uint256"
        },
        {
          "indexed": false,
          "internalType": "uint256",
          "name": "payout",
          "type": "uint256"
        }
      ],
      "name": "ClaimApproved",
      "type": "event"
    },
    {
      "anonymous": false,
      "inputs": [
        {
          "indexed": true,
          "internalType": "uint256",
          "name": "claimId",
          "type": "uint256"
        }
      ],
      "name": "ClaimPaid",
      "type": "event"
    },
    {
      "anonymous": false,
      "inputs": [
        {
          "indexed": true,
          "internalType": "uint256",
          "name": "claimId",
          "type": "uint256"
        },
        {
          "indexed": false,
          "internalType": "string",
          "name": "reason",
          "type": "string"
        }
      ],
      "name": "ClaimRejected",
      "type": "event"
    },
    {
      "anonymous": false,
      "inputs": [
        {
          "indexed": true,
          "internalType": "uint256",
          "name": "claimId",
          "type": "uint256"
        },
        {
          "indexed": true,
          "internalType": "uint256",
          "name": "policyId",
          "type": "uint256"
        },
        {
          "indexed": true,
          "internalType": "address",
          "name": "claimant",
          "type": "address"
        }
      ],
      "name": "ClaimSubmitted",
      "type": "event"
    },
    {
      "anonymous": false,
      "inputs": [
        {
          "indexed": true,
          "internalType": "uint256",
          "name": "claimId",
          "type": "uint256"
        },
        {
          "indexed": true,
          "internalType": "address",
          "name": "reviewer",
          "type": "address"
        }
      ],
      "name": "ReviewerAssigned",
      "type": "event"
    },
    {
      "inputs": [
        {
          "internalType": "uint256",
          "name": "",
          "type": "uint256"
        }
      ],
      "name": "activeReviewers",
      "outputs": [
        {
          "internalType": "address",
          "name": "",
          "type": "address"
        }
      ],
      "stateMutability": "view",
      "type": "function"
    },
    {
      "inputs": [
        {
          "internalType": "address",
          "name": "_reviewer",
          "type": "address"
        }
      ],
      "name": "addReviewer",
      "outputs": [],
      "stateMutability": "nonpayable",
      "type": "function"
    },
    {
      "inputs": [],
      "name": "admin",
      "outputs": [
        {
          "internalType": "address",
          "name": "",
          "type": "address"
        }
      ],
      "stateMutability": "view",
      "type": "function"
    },
    {
      "inputs": [],
      "name": "aiOracle",
      "outputs": [
        {
          "internalType": "address",
          "name": "",
          "type": "address"
        }
      ],
      "stateMutability": "view",
      "type": "function"
    },
    {
      "inputs": [],
      "name": "autoApproveThreshold",
      "outputs": [
        {
          "internalType": "uint8",
          "name": "",
          "type": "uint8"
        }
      ],
      "stateMutability": "view",
      "type": "function"
    },
    {
      "inputs": [],
      "name": "autoRejectThreshold",
      "outputs": [
        {
          "internalType": "uint8",
          "name": "",
          "type": "uint8"
        }
      ],
      "stateMutability": "view",
      "type": "function"
    },
    {
      "inputs": [
        {
          "internalType": "uint256",
          "name": "",
          "type": "uint256"
        }
      ],
      "name": "claims",
      "outputs": [
        {
          "internalType": "uint256",
          "name": "claimId",
          "type": "uint256"
        },
        {
          "internalType": "uint256",
          "name": "policyId",
          "type": "uint256"
        },
        {
          "internalType": "address",
          "name": "claimant",
          "type": "address"
        },
        {
          "internalType": "string",
          "name": "description",
          "type": "string"
        },
        {
          "internalType": "uint256",
          "name": "timestamp",
          "type": "uint256"
        },
        {
          "internalType": "enum ClaimsProcessor.ClaimStatus",
          "name": "status",
          "type": "uint8"
        },
        {
          "internalType": "uint8",
          "name": "claimType",
          "type": "uint8"
        },
        {
          "internalType": "uint8",
          "name": "severity",
          "type": "uint8"
        },
        {
          "internalType": "uint8",
          "name": "fraudRisk",
          "type": "uint8"
        },
        {
          "internalType": "uint256",
          "name": "recommendedPayout",
          "type": "uint256"
        },
        {
          "internalType": "uint256",
          "name": "finalPayout",
          "type": "uint256"
        },
        {
          "internalType": "uint256",
          "name": "processedAt",
          "type": "uint256"
        },
        {
          "internalType": "bool",
          "name": "requiresHumanReview",
          "type": "bool"
        },
        {
          "internalType": "address",
          "name": "assignedReviewer",
          "type": "address"
        }
      ],
      "stateMutability": "view",
      "type": "function"
    },
    {
      "inputs": [],
      "name": "getActiveReviewerCount",
      "outputs": [
        {
          "internalType": "uint256",
          "name": "",
          "type": "uint256"
        }
      ],
      "stateMutability": "view",
      "type": "function"
    },
    {
      "inputs": [
        {
          "internalType": "uint256",
          "name": "_claimId",
          "type": "uint256"
        }
      ],
      "name": "getClaim",
      "outputs": [
        {
          "components": [
            {
              "internalType": "uint256",
              "name": "claimId",
              "type": "uint256"
            },
            {
              "internalType": "uint256",
              "name": "policyId",
              "type": "uint256"
            },
            {
              "internalType": "address",
              "name": "claimant",
              "type": "address"
            },
            {
              "internalType": "string",
              "name": "description",
              "type": "string"
            },
            {
              "internalType": "string[]",
              "name": "evidenceHashes",
              "type": "string[]"
            },
            {
              "internalType": "uint256",
              "name": "timestamp",
              "type": "uint256"
            },
            {
              "internalType": "enum ClaimsProcessor.ClaimStatus",
              "name": "status",
              "type": "uint8"
            },
            {
              "internalType": "uint8",
              "name": "claimType",
              "type": "uint8"
            },
            {
              "internalType": "uint8",
              "name": "severity",
              "type": "uint8"
            },
            {
              "internalType": "uint8",
              "name": "fraudRisk",
              "type": "uint8"
            },
            {
              "internalType": "uint256",
              "name": "recommendedPayout",
              "type": "uint256"
            },
            {
              "internalType": "uint256",
              "name": "finalPayout",
              "type": "uint256"
            },
            {
              "internalType": "uint256",
              "name": "processedAt",
              "type": "uint256"
            },
            {
              "internalType": "bool",
              "name": "requiresHumanReview",
              "type": "bool"
            },
            {
              "internalType": "address",
              "name": "assignedReviewer",
              "type": "address"
            }
          ],
          "internalType": "struct ClaimsProcessor.Claim",
          "name": "",
          "type": "tuple"
        }
      ],
      "stateMutability": "view",
      "type": "function"
    },
    {
      "inputs": [],
      "name": "getClaimsForReview",
      "outputs": [
        {
          "internalType": "uint256[]",
          "name": "",
          "type": "uint256[]"
        }
      ],
      "stateMutability": "view",
      "type": "function"
    },
    {
      "inputs": [
        {
          "internalType": "address",
          "name": "_user",
          "type": "address"
        }
      ],
      "name": "getUserClaims",
      "outputs": [
        {
          "internalType": "uint256[]",
          "name": "",
          "type": "uint256[]"
        }
      ],
      "stateMutability": "view",
      "type": "function"
    },
    {
      "inputs": [],
      "name": "nextClaimId",
      "outputs": [
        {
          "internalType": "uint256",
          "name": "",
          "type": "uint256"
        }
      ],
      "stateMutability": "view",
      "type": "function"
    },
    {
      "inputs": [],
      "name": "numWords",
      "outputs": [
        {
          "internalType": "uint32",
          "name": "",
          "type": "uint32"
        }
      ],
      "stateMutability": "view",
      "type": "function"
    },
    {
      "inputs": [],
      "name": "payoutManager",
      "outputs": [
        {
          "internalType": "address payable",
          "name": "",
          "type": "address"
        }
      ],
      "stateMutability": "view",
      "type": "function"
    },
    {
      "inputs": [],
      "name": "policyRegistry",
      "outputs": [
        {
          "internalType": "address",
          "name": "",
          "type": "address"
        }
      ],
      "stateMutability": "view",
      "type": "function"
    },
    {
      "inputs": [
        {
          "internalType": "uint256",
          "name": "requestId",
          "type": "uint256"
        },
        {
          "internalType": "uint256[]",
          "name": "randomWords",
          "type": "uint256[]"
        }
      ],
      "name": "rawFulfillRandomWords",
      "outputs": [],
      "stateMutability": "nonpayable",
      "type": "function"
    },
    {
      "inputs": [
        {
          "internalType": "address",
          "name": "_reviewer",
          "type": "address"
        }
      ],
      "name": "removeReviewer",
      "outputs": [],
      "stateMutability": "nonpayable",
      "type": "function"
    },
    {
      "inputs": [
        {
          "internalType": "uint256",
          "name": "_claimId",
          "type": "uint256"
        },
        {
          "internalType": "uint256",
          "name": "_payout",
          "type": "uint256"
        }
      ],
      "name": "reviewerApproveClaim",
      "outputs": [],
      "stateMutability": "nonpayable",
      "type": "function"
    },
    {
      "inputs": [
        {
          "internalType": "uint256",
          "name": "_claimId",
          "type": "uint256"
        },
        {
          "internalType": "string",
          "name": "_reason",
          "type": "string"
        }
      ],
      "name": "reviewerRejectClaim",
      "outputs": [],
      "stateMutability": "nonpayable",
      "type": "function"
    },
    {
      "inputs": [
        {
          "internalType": "address",
          "name": "",
          "type": "address"
        }
      ],
      "name": "reviewers",
      "outputs": [
        {
          "internalType": "bool",
          "name": "",
          "type": "bool"
        }
      ],
      "stateMutability": "view",
      "type": "function"
    },
    {
      "inputs": [
        {
          "internalType": "address",
          "name": "_aiOracle",
          "type": "address"
        }
      ],
      "name": "setAIOracle",
      "outputs": [],
      "stateMutability": "nonpayable",
      "type": "function"
    },
    {
      "inputs": [
        {
          "internalType": "address",
          "name": "_payoutManager",
          "type": "address"
        }
      ],
      "name": "setPayoutManager",
      "outputs": [],
      "stateMutability": "nonpayable",
      "type": "function"
    },
    {
      "inputs": [
        {
          "internalType": "uint8",
          "name": "_autoApprove",
          "type": "uint8"
        },
        {
          "internalType": "uint8",
          "name": "_autoReject",
          "type": "uint8"
        }
      ],
      "name": "setThresholds",
      "outputs": [],
      "stateMutability": "nonpayable",
      "type": "function"
    },
    {
      "inputs": [
        {
          "internalType": "uint256",
          "name": "_claimId",
          "type": "uint256"
        },
        {
          "internalType": "uint8",
          "name": "_claimType",
          "type": "uint8"
        },
        {
          "internalType": "uint8",
          "name": "_severity",
          "type": "uint8"
        },
        {
          "internalType": "uint8",
          "name": "_fraudRisk",
          "type": "uint8"
        },
        {
          "internalType": "uint256",
          "name": "_recommendedPayout",
          "type": "uint256"
        }
      ],
      "name": "submitAIAnalysis",
      "outputs": [],
      "stateMutability": "nonpayable",
      "type": "function"
    },
    {
      "inputs": [
        {
          "internalType": "uint256",
          "name": "_policyId",
          "type": "uint256"
        },
        {
          "internalType": "string",
          "name": "_description",
          "type": "string"
        },
        {
          "internalType": "string[]",
          "name": "_evidenceHashes",
          "type": "string[]"
        }
      ],
      "name": "submitClaim",
      "outputs": [
        {
          "internalType": "uint256",
          "name": "",
          "type": "uint256"
        }
      ],
      "stateMutability": "nonpayable",
      "type": "function"
    },
    {
      "inputs": [],
      "name": "vrfCallbackGasLimit",
      "outputs": [
        {
          "internalType": "uint32",
          "name": "",
          "type": "uint32"
        }
      ],
      "stateMutability": "view",
      "type": "function"
    },
    {
      "inputs": [],
      "name": "vrfCoordinator",
      "outputs": [
        {
          "internalType": "contract VRFCoordinatorV2Interface",
          "name": "",
          "type": "address"
        }
      ],
      "stateMutability": "view",
      "type": "function"
    },
    {
      "inputs": [],
      "name": "vrfKeyHash",
      "outputs": [
        {
          "internalType": "bytes32",
          "name": "",
          "type": "bytes32"
        }
      ],
      "stateMutability": "view",
      "type": "function"
    },
    {
      "inputs": [],
      "name": "vrfRequestConfirmations",
      "outputs": [
        {
          "internalType": "uint16",
          "name": "",
          "type": "uint16"
        }
      ],
      "stateMutability": "view",
      "type": "function"
    },
    {
      "inputs": [
        {
          "internalType": "uint256",
          "name": "",
          "type": "uint256"
        }
      ],
      "name": "vrfRequestToClaim",
      "outputs": [
        {
          "internalType": "uint256",
          "name": "",
          "type": "uint256"
        }
      ],
      "stateMutability": "view",
      "type": "function"
    },
    {
      "inputs": [],
      "name": "vrfSubscriptionId",
      "outputs": [
        {
          "internalType": "uint64",
          "name": "",
          "type": "uint64"
        }
      ],
      "stateMutability": "view",
      "type": "function"
    }
  ],
  "bytecode": "0x60a03462000133576001600160401b0390601f620022c338819003918201601f191683019184831184841017620001385780849260809460405283398101031262000133576200004f816200014e565b6020820151906040830151938416840362000133576200007a60606601000300030d4094016200014e565b6080829052600160045560078054600a8054600580546006989098556001600160e01b03199097166001600160a01b039096169590951760a09890981b600160a01b600160e01b0316979097179094556001600160f01b031990931660509190911b600160501b600160f01b0316179290921790556001600160b01b0319163390811761118560a21b17909155600980546001600160a01b031916909117905560405161215f9081620001648239608051816119290152f35b600080fd5b634e487b7160e01b600052604160045260246000fd5b51906001600160a01b0382168203620001335756fe608080604052600436101561001357600080fd5b600090813560e01c908163041d443e14611a0d575080631aa632b3146119c05780631c4dd7d0146119935780631fe543e3146118b55780633083a8e31461188c57806331b221cd14611863578063324bc2a9146111c75780633b7ed734146111a357806354edb3a01461117f578063598bc4861461115b5780635aad00d6146111175780635aef244714610e145780635eb0ec3914610d1d5780636ae2a1c914610cff5780637181896f14610cb257806373a82b5f14610be05780637bcb4a6414610b085780637ccfd7fc14610ae15780638c50fa1f146109875780639b052153146108f3578063a0021cf1146108d5578063a3e56fa8146108ac578063a888c2cd146107bf578063b11b1d7614610795578063bfce86b3146106eb578063c9442dac14610579578063e277c88114610235578063e456c58a14610211578063ed647d21146101e7578063f7cbb1b2146101a15763f851a4401461017657600080fd5b3461019e578060031936011261019e57600a546040516001600160a01b039091168152602090f35b80fd5b503461019e57602036600319011261019e576004356001600160a01b038116908190036101e35760408260ff9260209452600284522054166040519015158152f35b5080fd5b503461019e578060031936011261019e5760206001600160401b0360055460a01c16604051908152f35b503461019e578060031936011261019e57602060ff600a5460a81c16604051908152f35b503461019e5760a036600319011261019e5760043590610253611cb1565b916044359260ff84168403610574576064359360ff85169081860361057457600954608435936001600160a01b039390918416330361053e5785875260209387855260ff600660408a20015416600681101561052a578798996102b96103189215611d36565b888b528a87526102fe60408c20966102e66006890197889061ff0082549160081b169061ff001916179055565b865462ff0000191660109190911b62ff000016178655565b845463ff000000191660189190911b63ff00000016178455565b85600785015560ff1991600183855416178455600a5460ff8160a01c16821080610521575b15610379575050505050505061035291611df3565b7f1d3aa49336afc0101ae504a343f9ab660f79125900c57654be752bb099b2da7d8280a280f35b60ff919293949596975060a81c16106000146103fd5750918160046060947f43cc3d080e025c67c26d62b18bd442511dc9c76c8aa3f48cc0e8f456173e61f1969454161790556009429101556018604051918083528201527f48696768206672617564207269736b20646574656374656400000000000000006040820152a2610352565b945091600a915001600182825416179055600354156104e65783855284825260026006604087200191825416179055806005549260a4600654876007549360405197889586946305d3b1d360e41b865260048601526001600160401b038260a01c16602486015261ffff81891c16604486015263ffffffff90818116606487015260301c166084850152165af180156104db5784906104a9575b60019250845252806040832055610352565b508082813d83116104d4575b6104bf8183611a6e565b810103126104d05760019151610497565b8380fd5b503d6104b5565b6040513d86823e3d90fd5b60405162461bcd60e51b81526004810183905260136024820152724e6f206163746976652072657669657765727360681b6044820152606490fd5b5087151561033d565b634e487b7160e01b89526021600452602489fd5b60405162461bcd60e51b815260206004820152600e60248201526d4f6e6c79204149206f7261636c6560901b6044820152606490fd5b600080fd5b503461019e57602036600319011261019e576004356001600160a01b03818116918290036106e7576105b081600a54163314611cc1565b818352600260205260ff604084205416156106b157818352600260205260408320805460ff19169055825b60038054808310156106a95784846105f285611afc565b905490851b1c161461060e57505061060990611cfa565b6105db565b929350916000199190828101908111610695579061063f8561063261065e94611afc565b905490871b1c1691611afc565b90919082549060031b9160018060a01b03809116831b921b1916179055565b8154801561068157019161067183611afc565b9091825491841b1b191690555580f35b634e487b7160e01b85526031600452602485fd5b634e487b7160e01b86526011600452602486fd5b505050505080f35b60405162461bcd60e51b815260206004820152600e60248201526d2737ba1030903932bb34b2bbb2b960911b6044820152606490fd5b8280fd5b503461019e57604036600319011261019e5760043560ff811680820361057457610713611cb1565b600a549161072b336001600160a01b03851614611cc1565b60ff8216111561075b5760ff60a81b9060a81b169160ff60a01b9060a01b169061ffff60a01b19161717600a5580f35b60405162461bcd60e51b8152602060048201526012602482015271496e76616c6964207468726573686f6c647360701b6044820152606490fd5b503461019e57602036600319011261019e5760406020916004358152600183522054604051908152f35b503461019e57602036600319011261019e5760409060043581528060205220805460018201549160018060a01b038060028301541661080060038401611c0b565b92600581015493600682015460ff60078401549161084b600886015494600a6009880154970154976040519c8d9c8d5260208d015260408c01526101c08060608d01528b0190611b49565b9760808a015261086060a08a01838316611b89565b818160081c1660c08a0152818160101c1660e08a015260181c1661010088015261012087015261014086015261016085015260ff8116151561018085015260081c166101a08301520390f35b503461019e578060031936011261019e576005546040516001600160a01b039091168152602090f35b503461019e578060031936011261019e576020600454604051908152f35b503461019e57604036600319011261019e57600435338252600260205261092060ff604084205416611d73565b808252816020526040822060ff600682015416600681101561097357610970929161095060026109679314611d36565b600a015460081c6001600160a01b03163314611daf565b60243590611df3565b80f35b634e487b7160e01b84526021600452602484fd5b503461019e578060031936011261019e573381526002602081815260ff6109b381604086205416611d73565b600454918460015b848110610a6257506109cc906120f7565b93859260015b8581106109eb57604051806109e78982611b96565b0390f35b8088528784526006828160408b200154169081101561052a57831480610a40575b610a1f575b610a1a90611cfa565b6109d2565b93610a388186610a32610a1a948b611f70565b52611cfa565b949050610a11565b5080885287845260408820600a015460081c6001600160a01b03163314610a0c565b8087528683526006848160408a2001541690811015610acd57861480610aab575b610a96575b610a9190611cfa565b6109bb565b90610aa3610a9191611cfa565b919050610a88565b5080875286835260408720600a015460081c6001600160a01b03163314610a83565b634e487b7160e01b88526021600452602488fd5b503461019e578060031936011261019e57602063ffffffff60075460301c16604051908152f35b503461019e576020806003193601126101e3576001600160a01b0390600435828116908190036104d057600454928460015b858110610ba65750610b4b906120f7565b94809360015b868110610b6657604051806109e78a82611b96565b808352828252848460026040862001541614610b8b575b610b8690611cfa565b610b51565b94610b9e8187610a32610b86948c611f70565b959050610b7d565b8087528685528383600260408a2001541614610bcb575b610bc690611cfa565b610b3a565b90610bd8610bc691611cfa565b919050610bbd565b503461019e57602036600319011261019e576004356001600160a01b03808216908183036104d057610c1790600a54163314611cc1565b808352600260205260ff604084205416610c78578252600260205260408220805460ff19166001179055600354600160401b811015610c64579061063f8260016109709401600355611afc565b634e487b7160e01b83526041600452602483fd5b60405162461bcd60e51b815260206004820152601260248201527120b63932b0b23c9030903932bb34b2bbb2b960711b6044820152606490fd5b503461019e57602036600319011261019e576004356001600160a01b03818116918290036106e757610ce990600a54163314611cc1565b6001600160601b0360a01b600854161760085580f35b503461019e578060031936011261019e576020600354604051908152f35b503461019e57604036600319011261019e576004356024356001600160401b0381116106e757610d51903690600401611aa6565b3383526002602052610d6960ff604085205416611d73565b818352826020526040832060068101805460ff81166006811015610e0057916004610dfa9492610dbd60027f43cc3d080e025c67c26d62b18bd442511dc9c76c8aa3f48cc0e8f456173e61f1989614611d36565b600a840154610dd99060081c6001600160a01b03163314611daf565b60ff1916179055600942910155604051918291602083526020830190611b49565b0390a280f35b634e487b7160e01b87526021600452602487fd5b503461019e57602036600319011261019e57806101c0604051610e3681611a29565b828152826020820152826040820152606080820152606060808201528260a08201528260c08201528260e08201528261010082015282610120820152826101408201528261016082015282610180820152826101a08201520152600435815280602052604081209060405191610eab83611a29565b805483526001810154602084015260028101546001600160a01b03166040840152610ed860038201611c0b565b60608401526004810154610eeb81611a8f565b90610ef96040519283611a6e565b808252602082016004840185526020852085915b8383106110fa57505050506080840152600581015460a0840152600681015490600660ff831610156110e45760ff8281600a941660c0870152818160081c1660e0870152818160101c1661010087015260181c16610120850152600781015461014085015260088101546101608501526009810154610180850152015460ff811615156101a084015260018060a01b039060081c166101c08301526040519060208252825160208301526020830151604083015260018060a01b036040840151166060830152610fee60608401516101e06080850152610200840190611b49565b90608084015191601f198482030160a0850152825190818152602081016020808460051b840101950193915b8383106110b7578680878a60a081015160c084015261104160c082015160e0850190611b89565b60ff60e08201511661010084015260ff6101008201511661012084015260ff610120820151166101408401526101408101516101608401526101608101516101808401526101808101516101a08401526101a081015115156101c08401526101c060018060a01b03910151166101e08301520390f35b90919293946020806110d5600193601f198682030187528951611b49565b9701930193019193929061101a565b634e487b7160e01b600052602160045260246000fd5b60016020819261110985611c0b565b815201920192019190610f0d565b503461019e57602036600319011261019e576004359060035482101561019e57602061114283611afc565b905460405160039290921b1c6001600160a01b03168152f35b503461019e578060031936011261019e57602060075461ffff60405191831c168152f35b503461019e578060031936011261019e57602060ff600a5460a01c16604051908152f35b503461019e578060031936011261019e57602063ffffffff60075416604051908152f35b503461019e57606036600319011261019e576024356001600160401b0381116101e3576111f8903690600401611aa6565b604435906001600160401b0382116106e757366023830112156106e75781600401359161122483611a8f565b926112326040519485611a6e565b80845260051b81016024016020840136821161185f5760248301905b82821061182c575050600754604051634a1f98d360e11b815260048035908201523360248201529250602091508290604490829060501c6001600160a01b03165afa9081156104db5784916117f1575b50156117bb57600454916112b183611cfa565b600455604051916112c183611a29565b8383526004356020840152336040840152606083015260808201524260a08201528260c08201528260e08201528261010082015282610120820152826101408201528261016082015282610180820152826101a0820152826101c082015281835282602052604083209080518255602081015160018301556002820160018060a01b036040830151166001600160601b0360a01b825416179055606081015180516001600160401b038111611708578060038501926113808454611bd1565b601f811161178b575b50602090601f831160011461172757889261171c575b50508160011b916000199060031b1c19161790555b6080810151805190600160401b8211611708576004840154826004860155808310611694575b506020016004840186526020862086915b838310611566575050505060a08101516005830155600682019160c082015192600684101561155257805460e084015161010085015161012086015163ff00000060189190911b1663ffffffff1990931660ff97881617600892831b61ff00161762ff000060109290921b91909116179190911790915561014083015160078301556101608301518282015561018083015160098301556101a0830151600a90920180546101c0909401516001600160a81b03199094169215159094169190911791901b610100600160a81b0316179055600754829060501c6001600160a01b0316803b156101e3578190602460405180968193630234d8a760e61b835260043560048401525af192831561154557602093611536575b5090604051913390827f9fe11e531030a058803617055e27f9f4768236e4322e13b9c4c09f4338e23a686004359280a48152f35b61153f90611a5b565b38611502565b50604051903d90823e3d90fd5b634e487b7160e01b86526021600452602486fd5b80518051906001600160401b038211611680576115838454611bd1565b601f8111611645575b506020908a601f84116001146115d8579280602093600196938796926115cd575b5050600019600383901b1c191690841b1785555b019201920191906113eb565b0151905038806115ad565b85905260208b2091908b5b601f198516811061162d575083602093600196938796938794601f19811610611614575b505050811b0185556115c1565b015160001960f88460031b161c19169055388080611607565b919260206001819286850151815501940192016115e3565b61167090858c5260208c20601f850160051c81019160208610611676575b601f0160051c0190611d1f565b3861158c565b9091508190611663565b634e487b7160e01b8a52604160045260248afd5b60048501875260208720908382015b81830181106116b35750506113da565b80896116c160019354611bd1565b806116cf575b5050016116a3565b601f811184146116e4575081555b89386116c7565b8282526116ff601f60208420920160051c8201858301611d1f565b818355556116dd565b634e487b7160e01b86526041600452602486fd5b01519050388061139f565b848952602089209250601f198416895b818110611773575090846001959493921061175a575b505050811b0190556113b4565b015160001960f88460031b161c1916905538808061174d565b92936020600181928786015181550195019301611737565b6117b590858a5260208a20601f850160051c8101916020861061167657601f0160051c0190611d1f565b38611389565b60405162461bcd60e51b815260206004820152600e60248201526d496e76616c696420706f6c69637960901b6044820152606490fd5b90506020813d602011611824575b8161180c60209383611a6e565b810103126104d0575180151581036104d0573861129e565b3d91506117ff565b81356001600160401b03811161185b57602091611850839260243691890101611aa6565b81520191019061124e565b8780fd5b8580fd5b503461019e578060031936011261019e576009546040516001600160a01b039091168152602090f35b503461019e578060031936011261019e576008546040516001600160a01b039091168152602090f35b503461019e57604036600319011261019e576024356001600160401b0381116101e357366023820112156101e35780600401356118f181611a8f565b916118ff6040519384611a6e565b81835260209160248385019160051b8301019136831161185f57602401905b8282106119845785857f00000000000000000000000000000000000000000000000000000000000000006001600160a01b031633819003611966575061097090600435611f84565b6044906040519063073e64fd60e21b82523360048301526024820152fd5b8135815290830190830161191e565b503461019e578060031936011261019e5760075460405160509190911c6001600160a01b03168152602090f35b503461019e57602036600319011261019e576004356001600160a01b03818116918290036106e7576119f790600a54163314611cc1565b6001600160601b0360a01b600954161760095580f35b9050346101e357816003193601126101e3576020906006548152f35b6101e081019081106001600160401b03821117611a4557604052565b634e487b7160e01b600052604160045260246000fd5b6001600160401b038111611a4557604052565b90601f801991011681019081106001600160401b03821117611a4557604052565b6001600160401b038111611a455760051b60200190565b81601f82011215610574578035906001600160401b038211611a455760405192611ada601f8401601f191660200185611a6e565b8284526020838301011161057457816000926020809301838601378301015290565b600354811015611b335760036000527fc2575a0e9e593c00f959f8c92f12db2869c3395a3b0502d05e2516446f71f85b0190600090565b634e487b7160e01b600052603260045260246000fd5b919082519283825260005b848110611b75575050826000602080949584010152601f8019910116010190565b602081830181015184830182015201611b54565b9060068210156110e45752565b6020908160408183019282815285518094520193019160005b828110611bbd575050505090565b835185529381019392810192600101611baf565b90600182811c92168015611c01575b6020831014611beb57565b634e487b7160e01b600052602260045260246000fd5b91607f1691611be0565b9060405191826000825492611c1f84611bd1565b908184526001948581169081600014611c8e5750600114611c4b575b5050611c4992500383611a6e565b565b9093915060005260209081600020936000915b818310611c76575050611c4993508201013880611c3b565b85548884018501529485019487945091830191611c5e565b915050611c4994506020925060ff191682840152151560051b8201013880611c3b565b6024359060ff8216820361057457565b15611cc857565b60405162461bcd60e51b815260206004820152600a60248201526927b7363c9030b236b4b760b11b6044820152606490fd5b6000198114611d095760010190565b634e487b7160e01b600052601160045260246000fd5b818110611d2a575050565b60008155600101611d1f565b15611d3d57565b60405162461bcd60e51b815260206004820152600e60248201526d496e76616c69642073746174757360901b6044820152606490fd5b15611d7a57565b60405162461bcd60e51b815260206004820152600d60248201526c27b7363c903932bb34b2bbb2b960991b6044820152606490fd5b15611db657565b60405162461bcd60e51b81526020600482015260156024820152742737ba1030b9b9b4b3b732b2103932bb34b2bbb2b960591b6044820152606490fd5b9060009082825281602052604090818320600681019260ff1992600384865416178555806008840155426009840155867f638d892b8630b775fea5d7a52b209e8bfa1d90c32b57cd37208ac84d4bcd6dcb60208451848152a26008546001600160a01b0390811680611e6b575b505050505050505050565b81600286015416813b15611f6c57889060648b838851958694859363652619a360e11b8552600485015260248401528860448401525af18015611f6257611f4e575b5060019060075460501c16930154833b15611f4a5790604487928385519687948593631f0224ad60e31b8552600485015260248401525af1908115611f415750611f2d575b5081541660051790557f633ff17603f543fb14610394a700602d41c32a3eded36897c06ec7789e4436509080a2388080808080808080611e60565b611f378491611a5b565b6106e75738611ef2565b513d86823e3d90fd5b8680fd5b96611f5b60019298611a5b565b9690611ead565b84513d8a823e3d90fd5b8880fd5b8051821015611b335760209160051b010190565b906000918252600160205260408220549081156120c0576003541561205757805115612043576020015160035490811561202f577fbc1f3daf62009283f8f2078bc45883e8dbb3f415bc325829ce38ece15b5f899091611fe49106611afc565b9054838552602085905260408520600a018054610100600160a81b03191660039390931b9190911c600881901b610100600160a81b03169290921790556001600160a01b03169280a3565b634e487b7160e01b84526012600452602484fd5b634e487b7160e01b83526032600452602483fd5b50600a80548284526020849052604084209091018054610100600160a81b03191660089290921b610100600160a81b03169190911790557fbc1f3daf62009283f8f2078bc45883e8dbb3f415bc325829ce38ece15b5f89906001600160a01b03600a54169280a3565b60405162461bcd60e51b815260206004820152600f60248201526e10db185a5b481b9bdd08199bdd5b99608a1b6044820152606490fd5b9061210182611a8f565b61210e6040519182611a6e565b828152809261211f601f1991611a8f565b019060203691013756fea2646970667358221220254174c0daf1a0b0624f339d56a186b9bdf69240c2da60833082d7668b1f453164736f6c63430008130033",
  "linkReferences": {},
  "deployedLinkReferences": {}
}