{
  "_format": "hh-sol-artifact-1",
  "contractName": "PayoutManager",
  "sourceName": "contracts/PayoutManager.sol",
  "abi": [
    {
      "inputs": [
        {
          "internalType": "address",
          "name": "_claimsProcessor",
          "type": "address"
        },
        {
          "internalType": "address",
          "name": "_priceFeed",
          "type": "address"
        }
      ],
      "stateMutability": "nonpayable",
      "type": "constructor"
    },
    {
      "anonymous": false,
      "inputs": [
        {
          "indexed": true,
          "internalType": "address",
          "name": "depositor",
          "type": "address"
        },
        {
          "indexed": false,
          "internalType": "uint256",
          "name": "amount",
          "type": "uint256"
        }
      ],
      "name": "FundsDeposited",
      "type": "event"
    },
    {
      "anonymous": false,
      "inputs": [
        {
          "indexed": true,
          "internalType": "address",
          "name": "recipient",
          "type": "address"
        },
        {
          "indexed": false,
          "internalType": "uint256",
          "name": "amount",
          "type": "uint256"
        }
      ],
      "name": "FundsWithdrawn",
      "type": "event"
    },
    {
      "anonymous": false,
      "inputs": [
        {
          "indexed": true,
          "internalType": "uint256",
          "name": "claimId",
          "type": "uint256"
        },
        {
          "indexed": true,
          "internalType": "address",
          "name": "recipient",
          "type": "address"
        },
        {
          "indexed": false,
          "internalType": "uint256",
          "name": "usdAmount",
          "type": "uint256"
        },
        {
          "indexed": false,
          "internalType": "uint256",
          "name": "avaxAmount",
          "type": "uint256"
        }
      ],
      "name": "PayoutProcessed",
      "type": "event"
    },
    {
      "inputs": [],
      "name": "admin",
      "outputs": [
        {
          "internalType": "address",
          "name": "",
          "type": "address"
        }
      ],
      "stateMutability": "view",
      "type": "function"
    },
    {
      "inputs": [],
      "name": "availableFunds",
      "outputs": [
        {
          "internalType": "uint256",
          "name": "",
          "type": "uint256"
        }
      ],
      "stateMutability": "view",
      "type": "function"
    },
    {
      "inputs": [
        {
          "internalType": "address",
          "name": "",
          "type": "address"
        }
      ],
      "name": "balances",
      "outputs": [
        {
          "internalType": "uint256",
          "name": "",
          "type": "uint256"
        }
      ],
      "stateMutability": "view",
      "type": "function"
    },
    {
      "inputs": [],
      "name": "claimsProcessor",
      "outputs": [
        {
          "internalType": "address",
          "name": "",
          "type": "address"
        }
      ],
      "stateMutability": "view",
      "type": "function"
    },
    {
      "inputs": [
        {
          "internalType": "uint256",
          "name": "_usdAmount",
          "type": "uint256"
        }
      ],
      "name": "convertUSDToAVAX",
      "outputs": [
        {
          "internalType": "uint256",
          "name": "",
          "type": "uint256"
        }
      ],
      "stateMutability": "view",
      "type": "function"
    },
    {
      "inputs": [],
      "name": "deposit",
      "outputs": [],
      "stateMutability": "payable",
      "type": "function"
    },
    {
      "inputs": [],
      "name": "getContractBalance",
      "outputs": [
        {
          "internalType": "uint256",
          "name": "",
          "type": "uint256"
        }
      ],
      "stateMutability": "view",
      "type": "function"
    },
    {
      "inputs": [
        {
          "internalType": "uint256",
          "name": "_claimId",
          "type": "uint256"
        }
      ],
      "name": "getPayoutDetails",
      "outputs": [
        {
          "components": [
            {
              "internalType": "uint256",
              "name": "claimId",
              "type": "uint256"
            },
            {
              "internalType": "address",
              "name": "recipient",
              "type": "address"
            },
            {
              "internalType": "uint256",
              "name": "usdAmount",
              "type": "uint256"
            },
            {
              "internalType": "uint256",
              "name": "avaxAmount",
              "type": "uint256"
            },
            {
              "internalType": "uint256",
              "name": "timestamp",
              "type": "uint256"
            },
            {
              "internalType": "bool",
              "name": "processed",
              "type": "bool"
            },
            {
              "internalType": "bool",
              "name": "withdrawn",
              "type": "bool"
            }
          ],
          "internalType": "struct PayoutManager.Payout",
          "name": "",
          "type": "tuple"
        }
      ],
      "stateMutability": "view",
      "type": "function"
    },
    {
      "inputs": [
        {
          "internalType": "address",
          "name": "_user",
          "type": "address"
        }
      ],
      "name": "getUserBalance",
      "outputs": [
        {
          "internalType": "uint256",
          "name": "",
          "type": "uint256"
        }
      ],
      "stateMutability": "view",
      "type": "function"
    },
    {
      "inputs": [
        {
          "internalType": "uint256",
          "name": "",
          "type": "uint256"
        }
      ],
      "name": "payouts",
      "outputs": [
        {
          "internalType": "uint256",
          "name": "claimId",
          "type": "uint256"
        },
        {
          "internalType": "address",
          "name": "recipient",
          "type": "address"
        },
        {
          "internalType": "uint256",
          "name": "usdAmount",
          "type": "uint256"
        },
        {
          "internalType": "uint256",
          "name": "avaxAmount",
          "type": "uint256"
        },
        {
          "internalType": "uint256",
          "name": "timestamp",
          "type": "uint256"
        },
        {
          "internalType": "bool",
          "name": "processed",
          "type": "bool"
        },
        {
          "internalType": "bool",
          "name": "withdrawn",
          "type": "bool"
        }
      ],
      "stateMutability": "view",
      "type": "function"
    },
    {
      "inputs": [],
      "name": "priceFeed",
      "outputs": [
        {
          "internalType": "contract AggregatorV3Interface",
          "name": "",
          "type": "address"
        }
      ],
      "stateMutability": "view",
      "type": "function"
    },
    {
      "inputs": [
        {
          "internalType": "uint256",
          "name": "_claimId",
          "type": "uint256"
        },
        {
          "internalType": "address",
          "name": "_recipient",
          "type": "address"
        },
        {
          "internalType": "uint256",
          "name": "_usdAmount",
          "type": "uint256"
        }
      ],
      "name": "processPayout",
      "outputs": [],
      "stateMutability": "nonpayable",
      "type": "function"
    },
    {
      "inputs": [
        {
          "internalType": "address",
          "name": "_priceFeed",
          "type": "address"
        }
      ],
      "name": "setPriceFeed",
      "outputs": [],
      "stateMutability": "nonpayable",
      "type": "function"
    },
    {
      "inputs": [
        {
          "internalType": "address",
          "name": "_treasury",
          "type": "address"
        }
      ],
      "name": "setTreasury",
      "outputs": [],
      "stateMutability": "nonpayable",
      "type": "function"
    },
    {
      "inputs": [],
      "name": "totalPayouts",
      "outputs": [
        {
          "internalType": "uint256",
          "name": "",
          "type": "uint256"
        }
      ],
      "stateMutability": "view",
      "type": "function"
    },
    {
      "inputs": [],
      "name": "totalWithdrawn",
      "outputs": [
        {
          "internalType": "uint256",
          "name": "",
          "type": "uint256"
        }
      ],
      "stateMutability": "view",
      "type": "function"
    },
    {
      "inputs": [],
      "name": "treasury",
      "outputs": [
        {
          "internalType": "address",
          "name": "",
          "type": "address"
        }
      ],
      "stateMutability": "view",
      "type": "function"
    },
    {
      "inputs": [],
      "name": "withdraw",
      "outputs": [],
      "stateMutability": "nonpayable",
      "type": "function"
    },
    {
      "inputs": [
        {
          "internalType": "uint256",
          "name": "_amount",
          "type": "uint256"
        }
      ],
      "name": "withdrawToTreasury",
      "outputs": [],
      "stateMutability": "nonpayable",
      "type": "function"
    },
    {
      "stateMutability": "payable",
      "type": "receive"
    }
  ],
  "bytecode": "0x60803461009b57601f610c8338819003918201601f19168301916001600160401b038311848410176100a057808492604094855283398101031261009b57610052602061004b836100b6565b92016100b6565b60018060a01b03908160018060a01b03199316836002541617600255168160055416176005553381600354161760035533906004541617600455604051610bb890816100cb8239f35b600080fd5b634e487b7160e01b600052604160045260246000fd5b51906001600160a01b038216820361009b5756fe608060408181526004918236101561002a575b505050361561002057600080fd5b610028610b45565b005b600092833560e01c9182631faa0414146107c75750816327e235e31461061b57816329652e861461074f5781633ccfd60b146106915781634089b1701461067257816346fcff4c14610653578163477348921461061b5781634b319713146105fc578163536a7e4f146105d357816361d027b3146105ab5781636f9fb98a14610590578163724e78da14610540578163741bef1a14610517578163abae70c51461042a578163c0348b0714610403578163ca4c334614610199578163d0e30db01461017f578163f0f4426014610136575063f851a4401461010b5780610012565b3461013257816003193601126101325760035490516001600160a01b039091168152602090f35b5080fd5b839034610132576020366003190112610132576101516108b7565b6003546001600160a01b03919061016b90831633146108d2565b82546001600160a01b031916911617905580f35b838060031936011261019657610193610b45565b80f35b80fd5b919050346103ff5760603660031901126103ff576024356001600160a01b0381811693803593928590036103fb5760443591806002541633036103c0578487526020908782528488205461037d57831561033a576101f6846109a6565b9283600854106103025786600587969594938b937fb4aeb9fb59644d1c26001b986295cde5bbfae34be7c5240fbccf4c37308e20fe9951916102378361090b565b8483528683018d81528a84018a815260608501918a835260808601934285528d60a088019a60018c5260c089019a818c528152808d522096518755600187019151166bffffffffffffffffffffffff60a01b825416179055516002850155516003840155519082015501915115159060ff61ff0084549251151560081b1692169061ffff191617179055868852600181528388206102d683825461095f565b90556102e482600854610982565b6008556102f38260065461095f565b6006558351928352820152a380f35b855162461bcd60e51b81529081018390526012602482015271496e73756666696369656e742066756e647360701b6044820152606490fd5b845162461bcd60e51b8152808401839052601760248201527f416d6f756e74206d75737420626520706f7369746976650000000000000000006044820152606490fd5b845162461bcd60e51b8152808401839052601860248201527f5061796f757420616c72656164792070726f63657373656400000000000000006044820152606490fd5b835162461bcd60e51b8152602081840152601560248201527427b7363c9031b630b4b6b990383937b1b2b9b9b7b960591b6044820152606490fd5b8580fd5b8280fd5b8284346101965760203660031901126101965750610423602092356109a6565b9051908152f35b9050346103ff5760203660031901126103ff576003548135916001600160a01b039161045990831633146108d2565b6104726104694760065490610982565b6007549061095f565b83116104d457916020917feaff4b37086828766ad3268786972c0cd24259d4c87a80f9d3963a3c3d999b0d936104aa83600854610982565b6008556104c98780808087878754165af16104c3610ac7565b50610b07565b54169351908152a280f35b606490602085519162461bcd60e51b8352820152601760248201527f4578636565647320617661696c61626c652066756e64730000000000000000006044820152fd5b50503461013257816003193601126101325760055490516001600160a01b039091168152602090f35b83346101965760203660031901126101965761055a6108b7565b6003546001600160a01b03919061057490831633146108d2565b166bffffffffffffffffffffffff60a01b600554161760055580f35b50503461013257816003193601126101325751478152602090f35b9050346103ff57826003193601126103ff575490516001600160a01b03909116815260209150f35b50503461013257816003193601126101325760025490516001600160a01b039091168152602090f35b5050346101325781600319360112610132576020906007549051908152f35b5050346101325760203660031901126101325760209181906001600160a01b036106436108b7565b1681526001845220549051908152f35b5050346101325781600319360112610132576020906008549051908152f35b5050346101325781600319360112610132576020906006549051908152f35b919050346103ff57826003193601126103ff573383526001602052808320549182156107145750338352600160205282818120556106d88380808086335af16104c3610ac7565b6106e48260075461095f565b600755519081527feaff4b37086828766ad3268786972c0cd24259d4c87a80f9d3963a3c3d999b0d60203392a280f35b6020606492519162461bcd60e51b835282015260166024820152754e6f2062616c616e636520746f20776974686472617760501b6044820152fd5b919050346103ff5760203660031901126103ff578060ff9160e09484358152806020522080549360018060a01b03600183015416926002830154906005600385015493850154940154948151978852602088015286015260608501526080840152818116151560a084015260081c16151560c0820152f35b90929150346108b35760203660031901126108b3578360e09460c0836107ed869561090b565b82815282602082015282858201528260608201528260808201528260a082015201528335815280602052208151906108248261090b565b80549384835260018060a01b0393846001840154169460208501958652600284015490828601918252600560038601549460608801958652860154956080880196875201549660ff60c060a0890198828b1615158a52019860081c1615158852835198895251166020880152519086015251606085015251608084015251151560a083015251151560c0820152f35b8380fd5b600435906001600160a01b03821682036108cd57565b600080fd5b156108d957565b60405162461bcd60e51b815260206004820152600a60248201526927b7363c9030b236b4b760b11b6044820152606490fd5b60e0810190811067ffffffffffffffff82111761092757604052565b634e487b7160e01b600052604160045260246000fd5b90601f8019910116810190811067ffffffffffffffff82111761092757604052565b9190820180921161096c57565b634e487b7160e01b600052601160045260246000fd5b9190820391821161096c57565b519069ffffffffffffffffffff821682036108cd57565b600554604051633fabe5a360e21b8152919060a090839060049082906001600160a01b03165afa918215610abb57600092610a6d575b506000821315610a3357670de0b6b3a76400009081810291818304149015171561096c5760648202918083046064149015171561096c578115610a1d570490565b634e487b7160e01b600052601260045260246000fd5b60405162461bcd60e51b8152602060048201526012602482015271496e76616c6964207072696365206461746160701b6044820152606490fd5b909160a0823d8211610ab3575b81610a8760a0938361093d565b810103126101965750610a998161098f565b50610aab60806020830151920161098f565b5090386109dc565b3d9150610a7a565b6040513d6000823e3d90fd5b3d15610b02573d9067ffffffffffffffff82116109275760405191610af6601f8201601f19166020018461093d565b82523d6000602084013e565b606090565b15610b0e57565b60405162461bcd60e51b815260206004820152600f60248201526e151c985b9cd9995c8819985a5b1959608a1b6044820152606490fd5b610b513460085461095f565b6008556040513481527f543ba50a5eec5e6178218e364b1d0f396157b3c8fa278522c2cb7fd99407d47460203392a256fea2646970667358221220888ba8a6dd0b865a7a92ae5a69bf327d922cbb27a73bc880d55b0528a44f426c64736f6c63430008130033",
  "linkReferences": {},
  "deployedLinkReferences": {}
}